{"abi":[{"type":"constructor","inputs":[{"name":"_zkJwtProofVerifier","type":"address","internalType":"contract ZkJwtProofVerifier"}],"stateMutability":"nonpayable"},{"type":"function","name":"getNullifierByWalletAddress","inputs":[],"outputs":[{"name":"_nullifierHash","type":"bytes32","internalType":"bytes32"}],"stateMutability":"view"},{"type":"function","name":"getPublicInputsOfAllProofs","inputs":[],"outputs":[{"name":"","type":"tuple[]","internalType":"struct DataType.PublicInput[]","components":[{"name":"domain","type":"string","internalType":"string"},{"name":"nullifierHash","type":"bytes32","internalType":"bytes32"},{"name":"walletAddress","type":"address","internalType":"address"},{"name":"createdAt","type":"string","internalType":"string"}]}],"stateMutability":"view"},{"type":"function","name":"getPublicInputsOfZkJwtProof","inputs":[{"name":"nullifierHash","type":"bytes32","internalType":"bytes32"}],"outputs":[{"name":"_publicInput","type":"tuple","internalType":"struct DataType.PublicInput","components":[{"name":"domain","type":"string","internalType":"string"},{"name":"nullifierHash","type":"bytes32","internalType":"bytes32"},{"name":"walletAddress","type":"address","internalType":"address"},{"name":"createdAt","type":"string","internalType":"string"}]}],"stateMutability":"view"},{"type":"function","name":"nullifiers","inputs":[{"name":"nullifierHash","type":"bytes32","internalType":"bytes32"}],"outputs":[{"name":"isNullified","type":"bool","internalType":"bool"}],"stateMutability":"view"},{"type":"function","name":"nullifiersByWalletAddresses","inputs":[{"name":"walletAddress","type":"address","internalType":"address"}],"outputs":[{"name":"nullifierHash","type":"bytes32","internalType":"bytes32"}],"stateMutability":"view"},{"type":"function","name":"publicInputsOfAllProofs","inputs":[{"name":"","type":"uint256","internalType":"uint256"}],"outputs":[{"name":"domain","type":"string","internalType":"string"},{"name":"nullifierHash","type":"bytes32","internalType":"bytes32"},{"name":"walletAddress","type":"address","internalType":"address"},{"name":"createdAt","type":"string","internalType":"string"}],"stateMutability":"view"},{"type":"function","name":"publicInputsOfZkJwtProofs","inputs":[{"name":"nullifierHash","type":"bytes32","internalType":"bytes32"}],"outputs":[{"name":"domain","type":"string","internalType":"string"},{"name":"nullifierHash","type":"bytes32","internalType":"bytes32"},{"name":"walletAddress","type":"address","internalType":"address"},{"name":"createdAt","type":"string","internalType":"string"}],"stateMutability":"view"},{"type":"function","name":"recordPublicInputsOfZkJwtProof","inputs":[{"name":"proof","type":"bytes","internalType":"bytes"},{"name":"publicInputs","type":"bytes32[]","internalType":"bytes32[]"},{"name":"separatedPublicInputs","type":"tuple","internalType":"struct DataType.PublicInput","components":[{"name":"domain","type":"string","internalType":"string"},{"name":"nullifierHash","type":"bytes32","internalType":"bytes32"},{"name":"walletAddress","type":"address","internalType":"address"},{"name":"createdAt","type":"string","internalType":"string"}]}],"outputs":[{"name":"","type":"bool","internalType":"bool"}],"stateMutability":"nonpayable"},{"type":"function","name":"zkJwtProofVerifier","inputs":[],"outputs":[{"name":"","type":"address","internalType":"contract ZkJwtProofVerifier"}],"stateMutability":"view"}],"bytecode":{"object":"0x6080604052348015600f57600080fd5b5060405161112a38038061112a833981016040819052602c916050565b600080546001600160a01b0319166001600160a01b0392909216919091179055607e565b600060208284031215606157600080fd5b81516001600160a01b0381168114607757600080fd5b9392505050565b61109d8061008d6000396000f3fe608060405234801561001057600080fd5b50600436106100935760003560e01c80635b76de9a116100665780635b76de9a1461011f57806376b848041461013e57806385071923146101695780639a91f38f14610189578063f9710552146101a957600080fd5b80630a0732fc146100985780630e3a0679146100c45780631ba2f29b146100d95780632997e86b146100fc575b600080fd5b6100ab6100a6366004610a7c565b6101bc565b6040516100bb9493929190610adb565b60405180910390f35b6100cc61031a565b6040516100bb9190610b74565b6100ec6100e7366004610d95565b6104be565b60405190151581526020016100bb565b6100ec61010a366004610a7c565b60026020526000908152604090205460ff1681565b336000908152600360205260409020545b6040519081526020016100bb565b600054610151906001600160a01b031681565b6040516001600160a01b0390911681526020016100bb565b61017c610177366004610a7c565b610863565b6040516100bb9190610e64565b610130610197366004610e7e565b60036020526000908152604090205481565b6100ab6101b7366004610a7c565b610a61565b600481815481106101cc57600080fd5b90600052602060002090600402016000915090508060000180546101ef90610e99565b80601f016020809104026020016040519081016040528092919081815260200182805461021b90610e99565b80156102685780601f1061023d57610100808354040283529160200191610268565b820191906000526020600020905b81548152906001019060200180831161024b57829003601f168201915b5050505060018301546002840154600385018054949592946001600160a01b0390921693509061029790610e99565b80601f01602080910402602001604051908101604052809291908181526020018280546102c390610e99565b80156103105780601f106102e557610100808354040283529160200191610310565b820191906000526020600020905b8154815290600101906020018083116102f357829003601f168201915b5050505050905084565b60606004805480602002602001604051908101604052809291908181526020016000905b828210156104b5578382906000526020600020906004020160405180608001604052908160008201805461037190610e99565b80601f016020809104026020016040519081016040528092919081815260200182805461039d90610e99565b80156103ea5780601f106103bf576101008083540402835291602001916103ea565b820191906000526020600020905b8154815290600101906020018083116103cd57829003601f168201915b50505091835250506001820154602082015260028201546001600160a01b0316604082015260038201805460609092019161042490610e99565b80601f016020809104026020016040519081016040528092919081815260200182805461045090610e99565b801561049d5780601f106104725761010080835404028352916020019161049d565b820191906000526020600020905b81548152906001019060200180831161048057829003601f168201915b5050505050815250508152602001906001019061033e565b50505050905090565b60008054604051639f652bc960e01b815282916001600160a01b031690639f652bc9906104f5908a908a908a908a90600401610ed3565b602060405180830381865afa158015610512573d6000803e3d6000fd5b505050506040513d601f19601f820116820180604052508101906105369190610f37565b9050806105945760405162461bcd60e51b815260206004820152602160248201527f4120676976656e205a4b2d4a57542070726f6f66206973206e6f742076616c696044820152601960fa1b60648201526084015b60405180910390fd5b82604001516001600160a01b0316336001600160a01b03161461062d5760405162461bcd60e51b8152602060048201526044602482018190527f412063616c6c65722061646472657373206d757374206265206120676976656e908201527f207365706172617465645075626c6963496e707574732e77616c6c65744164646064820152637265737360e01b608482015260a40161058b565b6106646040518060800160405280606081526020016000801916815260200160006001600160a01b03168152602001606081525090565b835181526020808501518183018190526040808701516001600160a01b031681850152606080880151908501526000918252600190925220815182919081906106ad9082610fa8565b506020820151600182015560408201516002820180546001600160a01b0319166001600160a01b03909216919091179055606082015160038201906106f29082610fa8565b50505060208082015160009081526002909152604090205460ff16156107995760405162461bcd60e51b815260206004820152605060248201527f4120676976656e206e756c6c69666965724861736820697320616c726561647960448201527f20757365642c207768696368206d65616e73206120676976656e2070726f6f6660648201526f081a5cc8185b1c9958591e481d5cd95960821b608482015260a40161058b565b602080820180516000908152600283526040808220805460ff19166001908117909155925133835260039094528120929092556004805491820181559182905282518392919091027f8a35acfbc15ff81a39ae7d344fd709f28e8600b4aa8c65c6b64bfe7fe36bd19b019081906108109082610fa8565b506020820151600182015560408201516002820180546001600160a01b0319166001600160a01b03909216919091179055606082015160038201906108559082610fa8565b505050505095945050505050565b61089a6040518060800160405280606081526020016000801916815260200160006001600160a01b03168152602001606081525090565b60008281526002602052604090205460ff1615156001146108fd5760405162461bcd60e51b815260206004820181905260248201527f4120676976656e206e756c6c69666965724861736820697320696e76616c6964604482015260640161058b565b6000828152600160205260409081902081516080810190925280548290829061092590610e99565b80601f016020809104026020016040519081016040528092919081815260200182805461095190610e99565b801561099e5780601f106109735761010080835404028352916020019161099e565b820191906000526020600020905b81548152906001019060200180831161098157829003601f168201915b50505091835250506001820154602082015260028201546001600160a01b031660408201526003820180546060909201916109d890610e99565b80601f0160208091040260200160405190810160405280929190818152602001828054610a0490610e99565b8015610a515780601f10610a2657610100808354040283529160200191610a51565b820191906000526020600020905b815481529060010190602001808311610a3457829003601f168201915b5050505050815250509050919050565b6001602052600090815260409020805481906101ef90610e99565b600060208284031215610a8e57600080fd5b5035919050565b6000815180845260005b81811015610abb57602081850181015186830182015201610a9f565b506000602082860101526020601f19601f83011685010191505092915050565b608081526000610aee6080830187610a95565b602083018690526001600160a01b03851660408401528281036060840152610b168185610a95565b979650505050505050565b6000815160808452610b366080850182610a95565b90506020830151602085015260018060a01b03604084015116604085015260608301518482036060860152610b6b8282610a95565b95945050505050565b6000602082016020835280845180835260408501915060408160051b86010192506020860160005b82811015610bcd57603f19878603018452610bb8858351610b21565b94506020938401939190910190600101610b9c565b50929695505050505050565b60008083601f840112610beb57600080fd5b50813567ffffffffffffffff811115610c0357600080fd5b6020830191508360208260051b8501011115610c1e57600080fd5b9250929050565b634e487b7160e01b600052604160045260246000fd5b600082601f830112610c4c57600080fd5b813567ffffffffffffffff811115610c6657610c66610c25565b604051601f8201601f19908116603f0116810167ffffffffffffffff81118282101715610c9557610c95610c25565b604052818152838201602001851015610cad57600080fd5b816020850160208301376000918101602001919091529392505050565b80356001600160a01b0381168114610ce157600080fd5b919050565b600060808284031215610cf857600080fd5b6040516080810167ffffffffffffffff81118282101715610d1b57610d1b610c25565b604052905080823567ffffffffffffffff811115610d3857600080fd5b610d4485828601610c3b565b82525060208381013590820152610d5d60408401610cca565b6040820152606083013567ffffffffffffffff811115610d7c57600080fd5b610d8885828601610c3b565b6060830152505092915050565b600080600080600060608688031215610dad57600080fd5b853567ffffffffffffffff811115610dc457600080fd5b8601601f81018813610dd557600080fd5b803567ffffffffffffffff811115610dec57600080fd5b886020828401011115610dfe57600080fd5b60209182019650945086013567ffffffffffffffff811115610e1f57600080fd5b610e2b88828901610bd9565b909450925050604086013567ffffffffffffffff811115610e4b57600080fd5b610e5788828901610ce6565b9150509295509295909350565b602081526000610e776020830184610b21565b9392505050565b600060208284031215610e9057600080fd5b610e7782610cca565b600181811c90821680610ead57607f821691505b602082108103610ecd57634e487b7160e01b600052602260045260246000fd5b50919050565b6040815283604082015283856060830137600060608583018101829052601f19601f8701168301838103820160208501529081018490526001600160fb1b03841115610f1e57600080fd5b8360051b80866080840137016080019695505050505050565b600060208284031215610f4957600080fd5b81518015158114610e7757600080fd5b601f821115610fa357806000526020600020601f840160051c81016020851015610f805750805b601f840160051c820191505b81811015610fa05760008155600101610f8c565b50505b505050565b815167ffffffffffffffff811115610fc257610fc2610c25565b610fd681610fd08454610e99565b84610f59565b6020601f82116001811461100a5760008315610ff25750848201515b600019600385901b1c1916600184901b178455610fa0565b600084815260208120601f198516915b8281101561103a578785015182556020948501946001909201910161101a565b50848210156110585786840151600019600387901b60f8161c191681555b50505050600190811b0190555056fea2646970667358221220a29363c78bf7c4bff8b0f9855fd9fc9c0467821de0bd2789a93582a772f9257e64736f6c634300081c0033","linkReferences":{}},"methodIdentifiers":{"getNullifierByWalletAddress()":"5b76de9a","getPublicInputsOfAllProofs()":"0e3a0679","getPublicInputsOfZkJwtProof(bytes32)":"85071923","nullifiers(bytes32)":"2997e86b","nullifiersByWalletAddresses(address)":"9a91f38f","publicInputsOfAllProofs(uint256)":"0a0732fc","publicInputsOfZkJwtProofs(bytes32)":"f9710552","recordPublicInputsOfZkJwtProof(bytes,bytes32[],(string,bytes32,address,string))":"1ba2f29b","zkJwtProofVerifier()":"76b84804"},"id":22}