{"abi":[{"type":"constructor","inputs":[{"name":"_zkJwtProofVerifier","type":"address","internalType":"contract ZkJwtProofVerifier"}],"stateMutability":"nonpayable"},{"type":"function","name":"getNullifiersByDomainAndEmailHashAndWalletAddresses","inputs":[{"name":"domain","type":"string","internalType":"string"},{"name":"emailHash","type":"string","internalType":"string"}],"outputs":[{"name":"_nullifierHash","type":"bytes32","internalType":"bytes32"}],"stateMutability":"view"},{"type":"function","name":"getPublicInputsOfAllProofs","inputs":[],"outputs":[{"name":"","type":"tuple[]","internalType":"struct DataType.PublicInput[]","components":[{"name":"domain","type":"string","internalType":"string"},{"name":"nullifierHash","type":"bytes32","internalType":"bytes32"},{"name":"emailHash","type":"string","internalType":"string"},{"name":"walletAddress","type":"address","internalType":"address"},{"name":"createdAt","type":"string","internalType":"string"}]}],"stateMutability":"view"},{"type":"function","name":"getPublicInputsOfZkJwtProof","inputs":[{"name":"nullifierHash","type":"bytes32","internalType":"bytes32"}],"outputs":[{"name":"_publicInput","type":"tuple","internalType":"struct DataType.PublicInput","components":[{"name":"domain","type":"string","internalType":"string"},{"name":"nullifierHash","type":"bytes32","internalType":"bytes32"},{"name":"emailHash","type":"string","internalType":"string"},{"name":"walletAddress","type":"address","internalType":"address"},{"name":"createdAt","type":"string","internalType":"string"}]}],"stateMutability":"view"},{"type":"function","name":"isNullifierAlreadyStoredOnChain","inputs":[{"name":"nullifierHash","type":"bytes32","internalType":"bytes32"}],"outputs":[{"name":"","type":"bool","internalType":"bool"}],"stateMutability":"view"},{"type":"function","name":"nullifiers","inputs":[{"name":"nullifierHash","type":"bytes32","internalType":"bytes32"}],"outputs":[{"name":"isNullified","type":"bool","internalType":"bool"}],"stateMutability":"view"},{"type":"function","name":"nullifiersByDomainAndEmailHashAndWalletAddresses","inputs":[{"name":"domain","type":"string","internalType":"string"},{"name":"emailHash","type":"string","internalType":"string"},{"name":"walletAddress","type":"address","internalType":"address"}],"outputs":[{"name":"nullifierHash","type":"bytes32","internalType":"bytes32"}],"stateMutability":"view"},{"type":"function","name":"publicInputsOfAllProofs","inputs":[{"name":"","type":"uint256","internalType":"uint256"}],"outputs":[{"name":"domain","type":"string","internalType":"string"},{"name":"nullifierHash","type":"bytes32","internalType":"bytes32"},{"name":"emailHash","type":"string","internalType":"string"},{"name":"walletAddress","type":"address","internalType":"address"},{"name":"createdAt","type":"string","internalType":"string"}],"stateMutability":"view"},{"type":"function","name":"publicInputsOfZkJwtProofs","inputs":[{"name":"nullifierHash","type":"bytes32","internalType":"bytes32"}],"outputs":[{"name":"domain","type":"string","internalType":"string"},{"name":"nullifierHash","type":"bytes32","internalType":"bytes32"},{"name":"emailHash","type":"string","internalType":"string"},{"name":"walletAddress","type":"address","internalType":"address"},{"name":"createdAt","type":"string","internalType":"string"}],"stateMutability":"view"},{"type":"function","name":"recordPublicInputsOfZkJwtProof","inputs":[{"name":"proof","type":"bytes","internalType":"bytes"},{"name":"publicInputs","type":"bytes32[]","internalType":"bytes32[]"},{"name":"separatedPublicInputs","type":"tuple","internalType":"struct DataType.PublicInput","components":[{"name":"domain","type":"string","internalType":"string"},{"name":"nullifierHash","type":"bytes32","internalType":"bytes32"},{"name":"emailHash","type":"string","internalType":"string"},{"name":"walletAddress","type":"address","internalType":"address"},{"name":"createdAt","type":"string","internalType":"string"}]}],"outputs":[{"name":"","type":"bool","internalType":"bool"}],"stateMutability":"nonpayable"},{"type":"function","name":"zkJwtProofVerifier","inputs":[],"outputs":[{"name":"","type":"address","internalType":"contract ZkJwtProofVerifier"}],"stateMutability":"view"}],"bytecode":{"object":"0x6080604052348015600f57600080fd5b50604051611524380380611524833981016040819052602c916050565b600080546001600160a01b0319166001600160a01b0392909216919091179055607e565b600060208284031215606157600080fd5b81516001600160a01b0381168114607757600080fd5b9392505050565b6114978061008d6000396000f3fe608060405234801561001057600080fd5b506004361061009e5760003560e01c806376b848041161006657806376b848041461019b57806385071923146101c6578063a8c1f469146101e6578063b6db92d8146101f9578063f97105521461020c57600080fd5b80630a0732fc146100a35780630e3a0679146100d05780632997e86b146100e55780633fbdc3531461011857806369f578d314610178575b600080fd5b6100b66100b1366004610d36565b61021f565b6040516100c7959493929190610d9f565b60405180910390f35b6100d861040c565b6040516100c79190610e66565b6101086100f3366004610d36565b60026020526000908152604090205460ff1681565b60405190151581526020016100c7565b61016a610126366004610fb2565b825160208185018101805160038252928201958201959095209190945282518084018501805192815290850193850193909320925291526000908152604090205481565b6040519081526020016100c7565b610108610186366004610d36565b60009081526002602052604090205460ff1690565b6000546101ae906001600160a01b031681565b6040516001600160a01b0390911681526020016100c7565b6101d96101d4366004610d36565b610642565b6040516100c79190611029565b6101086101f4366004611146565b6108a8565b61016a610207366004611211565b610c8f565b6100b661021a366004610d36565b610ce0565b6004818154811061022f57600080fd5b906000526020600020906005020160009150905080600001805461025290611278565b80601f016020809104026020016040519081016040528092919081815260200182805461027e90611278565b80156102cb5780601f106102a0576101008083540402835291602001916102cb565b820191906000526020600020905b8154815290600101906020018083116102ae57829003601f168201915b5050505050908060010154908060020180546102e690611278565b80601f016020809104026020016040519081016040528092919081815260200182805461031290611278565b801561035f5780601f106103345761010080835404028352916020019161035f565b820191906000526020600020905b81548152906001019060200180831161034257829003601f168201915b505050600384015460048501805494956001600160a01b0390921694919350915061038990611278565b80601f01602080910402602001604051908101604052809291908181526020018280546103b590611278565b80156104025780601f106103d757610100808354040283529160200191610402565b820191906000526020600020905b8154815290600101906020018083116103e557829003601f168201915b5050505050905085565b60606004805480602002602001604051908101604052809291908181526020016000905b8282101561063957838290600052602060002090600502016040518060a001604052908160008201805461046390611278565b80601f016020809104026020016040519081016040528092919081815260200182805461048f90611278565b80156104dc5780601f106104b1576101008083540402835291602001916104dc565b820191906000526020600020905b8154815290600101906020018083116104bf57829003601f168201915b50505050508152602001600182015481526020016002820180546104ff90611278565b80601f016020809104026020016040519081016040528092919081815260200182805461052b90611278565b80156105785780601f1061054d57610100808354040283529160200191610578565b820191906000526020600020905b81548152906001019060200180831161055b57829003601f168201915b505050918352505060038201546001600160a01b031660208201526004820180546040909201916105a890611278565b80601f01602080910402602001604051908101604052809291908181526020018280546105d490611278565b80156106215780601f106105f657610100808354040283529160200191610621565b820191906000526020600020905b81548152906001019060200180831161060457829003601f168201915b50505050508152505081526020019060010190610430565b50505050905090565b61064a610cfb565b60008281526002602052604090205460ff1615156001146106b25760405162461bcd60e51b815260206004820181905260248201527f4120676976656e206e756c6c69666965724861736820697320696e76616c696460448201526064015b60405180910390fd5b60008281526001602052604090819020815160a081019092528054829082906106da90611278565b80601f016020809104026020016040519081016040528092919081815260200182805461070690611278565b80156107535780601f1061072857610100808354040283529160200191610753565b820191906000526020600020905b81548152906001019060200180831161073657829003601f168201915b505050505081526020016001820154815260200160028201805461077690611278565b80601f01602080910402602001604051908101604052809291908181526020018280546107a290611278565b80156107ef5780601f106107c4576101008083540402835291602001916107ef565b820191906000526020600020905b8154815290600101906020018083116107d257829003601f168201915b505050918352505060038201546001600160a01b0316602082015260048201805460409092019161081f90611278565b80601f016020809104026020016040519081016040528092919081815260200182805461084b90611278565b80156108985780601f1061086d57610100808354040283529160200191610898565b820191906000526020600020905b81548152906001019060200180831161087b57829003601f168201915b5050505050815250509050919050565b60008054604051639f652bc960e01b815282916001600160a01b031690639f652bc9906108df908a908a908a908a906004016112b2565b602060405180830381865afa1580156108fc573d6000803e3d6000fd5b505050506040513d601f19601f820116820180604052508101906109209190611316565b9050806109795760405162461bcd60e51b815260206004820152602160248201527f4120676976656e205a4b2d4a57542070726f6f66206973206e6f742076616c696044820152601960fa1b60648201526084016106a9565b82606001516001600160a01b0316336001600160a01b031614610a125760405162461bcd60e51b8152602060048201526044602482018190527f412063616c6c65722061646472657373206d757374206265206120676976656e908201527f207365706172617465645075626c6963496e707574732e77616c6c65744164646064820152637265737360e01b608482015260a4016106a9565b610a1a610cfb565b83518152602080850151818301819052604080870151818501526060808801516001600160a01b03169085015260808088015190850152600091825260019092522081518291908190610a6d9082611387565b506020820151600182015560408201516002820190610a8c9082611387565b5060608201516003820180546001600160a01b0319166001600160a01b0390921691909117905560808201516004820190610ac79082611387565b50505060208082015160009081526002909152604090205460ff1615610b6e5760405162461bcd60e51b815260206004820152605060248201527f4120676976656e206e756c6c69666965724861736820697320616c726561647960448201527f20757365642c207768696368206d65616e73206120676976656e2070726f6f6660648201526f081a5cc8185b1c9958591e481d5cd95960821b608482015260a4016106a9565b6020808201805160009081526002909252604091829020805460ff1916600117905551825191519091600391610ba49190611445565b90815260200160405180910390208260400151604051610bc49190611445565b908152604080519182900360209081019092203360009081529252812091909155600480546001810182559152815182916005027f8a35acfbc15ff81a39ae7d344fd709f28e8600b4aa8c65c6b64bfe7fe36bd19b01908190610c279082611387565b506020820151600182015560408201516002820190610c469082611387565b5060608201516003820180546001600160a01b0319166001600160a01b0390921691909117905560808201516004820190610c819082611387565b505050505095945050505050565b6000600383604051610ca19190611445565b908152602001604051809103902082604051610cbd9190611445565b908152604080516020928190038301902033600090815292529020549392505050565b60016020526000908152604090208054819061025290611278565b6040518060a0016040528060608152602001600080191681526020016060815260200160006001600160a01b03168152602001606081525090565b600060208284031215610d4857600080fd5b5035919050565b60005b83811015610d6a578181015183820152602001610d52565b50506000910152565b60008151808452610d8b816020860160208601610d4f565b601f01601f19169290920160200192915050565b60a081526000610db260a0830188610d73565b8660208401528281036040840152610dca8187610d73565b6001600160a01b038616606085015283810360808501529050610ded8185610d73565b98975050505050505050565b6000815160a08452610e0e60a0850182610d73565b90506020830151602085015260408301518482036040860152610e318282610d73565b91505060018060a01b03606084015116606085015260808301518482036080860152610e5d8282610d73565b95945050505050565b6000602082016020835280845180835260408501915060408160051b86010192506020860160005b82811015610ebf57603f19878603018452610eaa858351610df9565b94506020938401939190910190600101610e8e565b50929695505050505050565b634e487b7160e01b600052604160045260246000fd5b60405160a081016001600160401b0381118282101715610f0357610f03610ecb565b60405290565b600082601f830112610f1a57600080fd5b81356001600160401b03811115610f3357610f33610ecb565b604051601f8201601f19908116603f011681016001600160401b0381118282101715610f6157610f61610ecb565b604052818152838201602001851015610f7957600080fd5b816020850160208301376000918101602001919091529392505050565b80356001600160a01b0381168114610fad57600080fd5b919050565b600080600060608486031215610fc757600080fd5b83356001600160401b03811115610fdd57600080fd5b610fe986828701610f09565b93505060208401356001600160401b0381111561100557600080fd5b61101186828701610f09565b92505061102060408501610f96565b90509250925092565b60208152600061103c6020830184610df9565b9392505050565b60008083601f84011261105557600080fd5b5081356001600160401b0381111561106c57600080fd5b6020830191508360208260051b850101111561108757600080fd5b9250929050565b600060a082840312156110a057600080fd5b6110a8610ee1565b905081356001600160401b038111156110c057600080fd5b6110cc84828501610f09565b8252506020828101359082015260408201356001600160401b038111156110f257600080fd5b6110fe84828501610f09565b60408301525061111060608301610f96565b606082015260808201356001600160401b0381111561112e57600080fd5b61113a84828501610f09565b60808301525092915050565b60008060008060006060868803121561115e57600080fd5b85356001600160401b0381111561117457600080fd5b8601601f8101881361118557600080fd5b80356001600160401b0381111561119b57600080fd5b8860208284010111156111ad57600080fd5b6020918201965094508601356001600160401b038111156111cd57600080fd5b6111d988828901611043565b90945092505060408601356001600160401b038111156111f857600080fd5b6112048882890161108e565b9150509295509295909350565b6000806040838503121561122457600080fd5b82356001600160401b0381111561123a57600080fd5b61124685828601610f09565b92505060208301356001600160401b0381111561126257600080fd5b61126e85828601610f09565b9150509250929050565b600181811c9082168061128c57607f821691505b6020821081036112ac57634e487b7160e01b600052602260045260246000fd5b50919050565b6040815283604082015283856060830137600060608583018101829052601f19601f8701168301838103820160208501529081018490526001600160fb1b038411156112fd57600080fd5b8360051b80866080840137016080019695505050505050565b60006020828403121561132857600080fd5b8151801515811461103c57600080fd5b601f82111561138257806000526020600020601f840160051c8101602085101561135f5750805b601f840160051c820191505b8181101561137f576000815560010161136b565b50505b505050565b81516001600160401b038111156113a0576113a0610ecb565b6113b4816113ae8454611278565b84611338565b6020601f8211600181146113e857600083156113d05750848201515b600019600385901b1c1916600184901b17845561137f565b600084815260208120601f198516915b8281101561141857878501518255602094850194600190920191016113f8565b50848210156114365786840151600019600387901b60f8161c191681555b50505050600190811b01905550565b60008251611457818460208701610d4f565b919091019291505056fea2646970667358221220a399aee36db995b26398a970edbcd9cff1ddf043ed9be4e742f098b52f32934564736f6c634300081c0033","linkReferences":{}},"methodIdentifiers":{"getNullifiersByDomainAndEmailHashAndWalletAddresses(string,string)":"b6db92d8","getPublicInputsOfAllProofs()":"0e3a0679","getPublicInputsOfZkJwtProof(bytes32)":"85071923","isNullifierAlreadyStoredOnChain(bytes32)":"69f578d3","nullifiers(bytes32)":"2997e86b","nullifiersByDomainAndEmailHashAndWalletAddresses(string,string,address)":"3fbdc353","publicInputsOfAllProofs(uint256)":"0a0732fc","publicInputsOfZkJwtProofs(bytes32)":"f9710552","recordPublicInputsOfZkJwtProof(bytes,bytes32[],(string,bytes32,string,address,string))":"a8c1f469","zkJwtProofVerifier()":"76b84804"},"id":22}