{
    "abi": [
        {
            "type": "constructor",
            "inputs": [
                {
                    "name": "_zkJwtProofVerifier",
                    "type": "address",
                    "internalType": "contract ZkJwtProofVerifier"
                }
            ],
            "stateMutability": "nonpayable"
        },
        {
            "type": "function",
            "name": "getNullifiersByDomainAndEmailHashAndWalletAddress",
            "inputs": [
                {
                    "name": "domain",
                    "type": "string",
                    "internalType": "string"
                },
                {
                    "name": "emailHash",
                    "type": "string",
                    "internalType": "string"
                }
            ],
            "outputs": [
                {
                    "name": "_nullifierHash",
                    "type": "bytes32",
                    "internalType": "bytes32"
                }
            ],
            "stateMutability": "view"
        },
        {
            "type": "function",
            "name": "getNullifiersByDomainAndWalletAddress",
            "inputs": [
                {
                    "name": "domain",
                    "type": "string",
                    "internalType": "string"
                }
            ],
            "outputs": [
                {
                    "name": "_nullifierHash",
                    "type": "bytes32",
                    "internalType": "bytes32"
                }
            ],
            "stateMutability": "view"
        },
        {
            "type": "function",
            "name": "getPublicInputsOfAllProofs",
            "inputs": [],
            "outputs": [
                {
                    "name": "",
                    "type": "tuple[]",
                    "internalType": "struct DataType.PublicInput[]",
                    "components": [
                        {
                            "name": "domain",
                            "type": "string",
                            "internalType": "string"
                        },
                        {
                            "name": "nullifierHash",
                            "type": "bytes32",
                            "internalType": "bytes32"
                        },
                        {
                            "name": "emailHash",
                            "type": "string",
                            "internalType": "string"
                        },
                        {
                            "name": "walletAddress",
                            "type": "address",
                            "internalType": "address"
                        },
                        {
                            "name": "createdAt",
                            "type": "string",
                            "internalType": "string"
                        }
                    ]
                }
            ],
            "stateMutability": "view"
        },
        {
            "type": "function",
            "name": "getPublicInputsOfZkJwtProof",
            "inputs": [
                {
                    "name": "nullifierHash",
                    "type": "bytes32",
                    "internalType": "bytes32"
                }
            ],
            "outputs": [
                {
                    "name": "_publicInput",
                    "type": "tuple",
                    "internalType": "struct DataType.PublicInput",
                    "components": [
                        {
                            "name": "domain",
                            "type": "string",
                            "internalType": "string"
                        },
                        {
                            "name": "nullifierHash",
                            "type": "bytes32",
                            "internalType": "bytes32"
                        },
                        {
                            "name": "emailHash",
                            "type": "string",
                            "internalType": "string"
                        },
                        {
                            "name": "walletAddress",
                            "type": "address",
                            "internalType": "address"
                        },
                        {
                            "name": "createdAt",
                            "type": "string",
                            "internalType": "string"
                        }
                    ]
                }
            ],
            "stateMutability": "view"
        },
        {
            "type": "function",
            "name": "isNullifierAlreadyStoredOnChain",
            "inputs": [
                {
                    "name": "nullifierHash",
                    "type": "bytes32",
                    "internalType": "bytes32"
                }
            ],
            "outputs": [
                {
                    "name": "",
                    "type": "bool",
                    "internalType": "bool"
                }
            ],
            "stateMutability": "view"
        },
        {
            "type": "function",
            "name": "nullifiers",
            "inputs": [
                {
                    "name": "nullifierHash",
                    "type": "bytes32",
                    "internalType": "bytes32"
                }
            ],
            "outputs": [
                {
                    "name": "isNullified",
                    "type": "bool",
                    "internalType": "bool"
                }
            ],
            "stateMutability": "view"
        },
        {
            "type": "function",
            "name": "nullifiersByDomainAndEmailHashAndWalletAddresses",
            "inputs": [
                {
                    "name": "domain",
                    "type": "string",
                    "internalType": "string"
                },
                {
                    "name": "emailHash",
                    "type": "string",
                    "internalType": "string"
                },
                {
                    "name": "walletAddress",
                    "type": "address",
                    "internalType": "address"
                }
            ],
            "outputs": [
                {
                    "name": "nullifierHash",
                    "type": "bytes32",
                    "internalType": "bytes32"
                }
            ],
            "stateMutability": "view"
        },
        {
            "type": "function",
            "name": "nullifiersByDomainAndWalletAddresses",
            "inputs": [
                {
                    "name": "domain",
                    "type": "string",
                    "internalType": "string"
                },
                {
                    "name": "walletAddress",
                    "type": "address",
                    "internalType": "address"
                }
            ],
            "outputs": [
                {
                    "name": "nullifierHash",
                    "type": "bytes32",
                    "internalType": "bytes32"
                }
            ],
            "stateMutability": "view"
        },
        {
            "type": "function",
            "name": "publicInputsOfAllProofs",
            "inputs": [
                {
                    "name": "",
                    "type": "uint256",
                    "internalType": "uint256"
                }
            ],
            "outputs": [
                {
                    "name": "domain",
                    "type": "string",
                    "internalType": "string"
                },
                {
                    "name": "nullifierHash",
                    "type": "bytes32",
                    "internalType": "bytes32"
                },
                {
                    "name": "emailHash",
                    "type": "string",
                    "internalType": "string"
                },
                {
                    "name": "walletAddress",
                    "type": "address",
                    "internalType": "address"
                },
                {
                    "name": "createdAt",
                    "type": "string",
                    "internalType": "string"
                }
            ],
            "stateMutability": "view"
        },
        {
            "type": "function",
            "name": "publicInputsOfZkJwtProofs",
            "inputs": [
                {
                    "name": "nullifierHash",
                    "type": "bytes32",
                    "internalType": "bytes32"
                }
            ],
            "outputs": [
                {
                    "name": "domain",
                    "type": "string",
                    "internalType": "string"
                },
                {
                    "name": "nullifierHash",
                    "type": "bytes32",
                    "internalType": "bytes32"
                },
                {
                    "name": "emailHash",
                    "type": "string",
                    "internalType": "string"
                },
                {
                    "name": "walletAddress",
                    "type": "address",
                    "internalType": "address"
                },
                {
                    "name": "createdAt",
                    "type": "string",
                    "internalType": "string"
                }
            ],
            "stateMutability": "view"
        },
        {
            "type": "function",
            "name": "recordPublicInputsOfZkJwtProof",
            "inputs": [
                {
                    "name": "proof",
                    "type": "bytes",
                    "internalType": "bytes"
                },
                {
                    "name": "publicInputs",
                    "type": "bytes32[]",
                    "internalType": "bytes32[]"
                },
                {
                    "name": "separatedPublicInputs",
                    "type": "tuple",
                    "internalType": "struct DataType.PublicInput",
                    "components": [
                        {
                            "name": "domain",
                            "type": "string",
                            "internalType": "string"
                        },
                        {
                            "name": "nullifierHash",
                            "type": "bytes32",
                            "internalType": "bytes32"
                        },
                        {
                            "name": "emailHash",
                            "type": "string",
                            "internalType": "string"
                        },
                        {
                            "name": "walletAddress",
                            "type": "address",
                            "internalType": "address"
                        },
                        {
                            "name": "createdAt",
                            "type": "string",
                            "internalType": "string"
                        }
                    ]
                }
            ],
            "outputs": [
                {
                    "name": "",
                    "type": "bool",
                    "internalType": "bool"
                }
            ],
            "stateMutability": "nonpayable"
        },
        {
            "type": "function",
            "name": "zkJwtProofVerifier",
            "inputs": [],
            "outputs": [
                {
                    "name": "",
                    "type": "address",
                    "internalType": "contract ZkJwtProofVerifier"
                }
            ],
            "stateMutability": "view"
        }
    ],
    "bytecode": {
        "object": "0x6080604052348015600e575f5ffd5b506040516115cf3803806115cf833981016040819052602b91604e565b5f80546001600160a01b0319166001600160a01b03929092169190911790556079565b5f60208284031215605d575f5ffd5b81516001600160a01b03811681146072575f5ffd5b9392505050565b611549806100865f395ff3fe608060405234801561000f575f5ffd5b50600436106100b1575f3560e01c806376b848041161006e57806376b84804146101e4578063850719231461020e5780638b88d98d1461022e578063a8c1f46914610241578063b8112f2e14610254578063f971055214610267575f5ffd5b80630a0732fc146100b55780630e3a0679146100e2578063234b18f3146100f75780632997e86b1461013f5780633fbdc3531461017157806369f578d3146101c2575b5f5ffd5b6100c86100c3366004610dc5565b61027a565b6040516100d9959493929190610e0a565b60405180910390f35b6100ea61045c565b6040516100d99190610ecf565b610131610105366004611012565b81516020818401810180516003825292820194820194909420919093529091525f908152604090205481565b6040519081526020016100d9565b61016161014d366004610dc5565b60026020525f908152604090205460ff1681565b60405190151581526020016100d9565b61013161017f36600461105c565b825160208185018101805160048252928201958201959095209190945282518084018501805192815290850193850193909320925291525f908152604090205481565b6101616101d0366004610dc5565b5f9081526002602052604090205460ff1690565b5f546101f6906001600160a01b031681565b6040516001600160a01b0390911681526020016100d9565b61022161021c366004610dc5565b610688565b6040516100d991906110ce565b61013161023c3660046110e7565b610917565b61016161024f36600461121a565b610949565b6101316102623660046112db565b610d5c565b6100c8610275366004610dc5565b610dab565b60058181548110610289575f80fd5b905f5260205f2090600502015f91509050805f0180546102a89061133e565b80601f01602080910402602001604051908101604052809291908181526020018280546102d49061133e565b801561031f5780601f106102f65761010080835404028352916020019161031f565b820191905f5260205f20905b81548152906001019060200180831161030257829003601f168201915b50505050509080600101549080600201805461033a9061133e565b80601f01602080910402602001604051908101604052809291908181526020018280546103669061133e565b80156103b15780601f10610388576101008083540402835291602001916103b1565b820191905f5260205f20905b81548152906001019060200180831161039457829003601f168201915b505050600384015460048501805494956001600160a01b039092169491935091506103db9061133e565b80601f01602080910402602001604051908101604052809291908181526020018280546104079061133e565b80156104525780601f1061042957610100808354040283529160200191610452565b820191905f5260205f20905b81548152906001019060200180831161043557829003601f168201915b5050505050905085565b60606005805480602002602001604051908101604052809291908181526020015f905b8282101561067f578382905f5260205f2090600502016040518060a00160405290815f820180546104af9061133e565b80601f01602080910402602001604051908101604052809291908181526020018280546104db9061133e565b80156105265780601f106104fd57610100808354040283529160200191610526565b820191905f5260205f20905b81548152906001019060200180831161050957829003601f168201915b50505050508152602001600182015481526020016002820180546105499061133e565b80601f01602080910402602001604051908101604052809291908181526020018280546105759061133e565b80156105c05780601f10610597576101008083540402835291602001916105c0565b820191905f5260205f20905b8154815290600101906020018083116105a357829003601f168201915b505050918352505060038201546001600160a01b031660208201526004820180546040909201916105f09061133e565b80601f016020809104026020016040519081016040528092919081815260200182805461061c9061133e565b80156106675780601f1061063e57610100808354040283529160200191610667565b820191905f5260205f20905b81548152906001019060200180831161064a57829003601f168201915b5050505050815250508152602001906001019061047f565b50505050905090565b6106c16040518060a00160405280606081526020015f8152602001606081526020015f6001600160a01b03168152602001606081525090565b5f8281526002602052604090205460ff1615156001146107285760405162461bcd60e51b815260206004820181905260248201527f4120676976656e206e756c6c69666965724861736820697320696e76616c696460448201526064015b60405180910390fd5b5f8281526001602052604090819020815160a0810190925280548290829061074f9061133e565b80601f016020809104026020016040519081016040528092919081815260200182805461077b9061133e565b80156107c65780601f1061079d576101008083540402835291602001916107c6565b820191905f5260205f20905b8154815290600101906020018083116107a957829003601f168201915b50505050508152602001600182015481526020016002820180546107e99061133e565b80601f01602080910402602001604051908101604052809291908181526020018280546108159061133e565b80156108605780601f1061083757610100808354040283529160200191610860565b820191905f5260205f20905b81548152906001019060200180831161084357829003601f168201915b505050918352505060038201546001600160a01b031660208201526004820180546040909201916108909061133e565b80601f01602080910402602001604051908101604052809291908181526020018280546108bc9061133e565b80156109075780601f106108de57610100808354040283529160200191610907565b820191905f5260205f20905b8154815290600101906020018083116108ea57829003601f168201915b5050505050815250509050919050565b5f6003826040516109289190611376565b9081526040805160209281900383019020335f908152925290205492915050565b5f8054604051639f652bc960e01b815282916001600160a01b031690639f652bc99061097f908a908a908a908a9060040161138c565b602060405180830381865afa15801561099a573d5f5f3e3d5ffd5b505050506040513d601f19601f820116820180604052508101906109be91906113ee565b905080610a175760405162461bcd60e51b815260206004820152602160248201527f4120676976656e205a4b2d4a57542070726f6f66206973206e6f742076616c696044820152601960fa1b606482015260840161071f565b82606001516001600160a01b0316336001600160a01b031614610ab05760405162461bcd60e51b8152602060048201526044602482018190527f412063616c6c65722061646472657373206d757374206265206120676976656e908201527f207365706172617465645075626c6963496e707574732e77616c6c65744164646064820152637265737360e01b608482015260a40161071f565b610ae96040518060a00160405280606081526020015f8152602001606081526020015f6001600160a01b03168152602001606081525090565b83518152602080850151818301819052604080870151818501526060808801516001600160a01b031690850152608080880151908501525f91825260019092522081518291908190610b3b9082611459565b506020820151600182015560408201516002820190610b5a9082611459565b5060608201516003820180546001600160a01b0319166001600160a01b0390921691909117905560808201516004820190610b959082611459565b5050506020808201515f9081526002909152604090205460ff1615610c3b5760405162461bcd60e51b815260206004820152605060248201527f4120676976656e206e756c6c69666965724861736820697320616c726561647960448201527f20757365642c207768696368206d65616e73206120676976656e2070726f6f6660648201526f081a5cc8185b1c9958591e481d5cd95960821b608482015260a40161071f565b602080820180515f9081526002909252604091829020805460ff1916600117905551825191519091600491610c709190611376565b90815260200160405180910390208260400151604051610c909190611376565b90815260408051918290036020908101909220335f90815292528120919091556005805460018101825591819052825183929091027f036b6384b5eca791c62761152d0c79bb0604c104a5fb6f4eb0703f3154bb3db001908190610cf49082611459565b506020820151600182015560408201516002820190610d139082611459565b5060608201516003820180546001600160a01b0319166001600160a01b0390921691909117905560808201516004820190610d4e9082611459565b505050505095945050505050565b5f600483604051610d6d9190611376565b908152602001604051809103902082604051610d899190611376565b9081526040805160209281900383019020335f90815292529020549392505050565b60016020525f90815260409020805481906102a89061133e565b5f60208284031215610dd5575f5ffd5b5035919050565b5f81518084528060208401602086015e5f602082860101526020601f19601f83011685010191505092915050565b60a081525f610e1c60a0830188610ddc565b8660208401528281036040840152610e348187610ddc565b6001600160a01b038616606085015283810360808501529050610e578185610ddc565b98975050505050505050565b5f815160a08452610e7760a0850182610ddc565b90506020830151602085015260408301518482036040860152610e9a8282610ddc565b91505060018060a01b03606084015116606085015260808301518482036080860152610ec68282610ddc565b95945050505050565b5f602082016020835280845180835260408501915060408160051b8601019250602086015f5b82811015610f2657603f19878603018452610f11858351610e63565b94506020938401939190910190600101610ef5565b50929695505050505050565b634e487b7160e01b5f52604160045260245ffd5b60405160a081016001600160401b0381118282101715610f6857610f68610f32565b60405290565b5f82601f830112610f7d575f5ffd5b81356001600160401b03811115610f9657610f96610f32565b604051601f8201601f19908116603f011681016001600160401b0381118282101715610fc457610fc4610f32565b604052818152838201602001851015610fdb575f5ffd5b816020850160208301375f918101602001919091529392505050565b80356001600160a01b038116811461100d575f5ffd5b919050565b5f5f60408385031215611023575f5ffd5b82356001600160401b03811115611038575f5ffd5b61104485828601610f6e565b92505061105360208401610ff7565b90509250929050565b5f5f5f6060848603121561106e575f5ffd5b83356001600160401b03811115611083575f5ffd5b61108f86828701610f6e565b93505060208401356001600160401b038111156110aa575f5ffd5b6110b686828701610f6e565b9250506110c560408501610ff7565b90509250925092565b602081525f6110e06020830184610e63565b9392505050565b5f602082840312156110f7575f5ffd5b81356001600160401b0381111561110c575f5ffd5b61111884828501610f6e565b949350505050565b5f5f83601f840112611130575f5ffd5b5081356001600160401b03811115611146575f5ffd5b6020830191508360208260051b8501011115611160575f5ffd5b9250929050565b5f60a08284031215611177575f5ffd5b61117f610f46565b905081356001600160401b03811115611196575f5ffd5b6111a284828501610f6e565b8252506020828101359082015260408201356001600160401b038111156111c7575f5ffd5b6111d384828501610f6e565b6040830152506111e560608301610ff7565b606082015260808201356001600160401b03811115611202575f5ffd5b61120e84828501610f6e565b60808301525092915050565b5f5f5f5f5f6060868803121561122e575f5ffd5b85356001600160401b03811115611243575f5ffd5b8601601f81018813611253575f5ffd5b80356001600160401b03811115611268575f5ffd5b886020828401011115611279575f5ffd5b6020918201965094508601356001600160401b03811115611298575f5ffd5b6112a488828901611120565b90945092505060408601356001600160401b038111156112c2575f5ffd5b6112ce88828901611167565b9150509295509295909350565b5f5f604083850312156112ec575f5ffd5b82356001600160401b03811115611301575f5ffd5b61130d85828601610f6e565b92505060208301356001600160401b03811115611328575f5ffd5b61133485828601610f6e565b9150509250929050565b600181811c9082168061135257607f821691505b60208210810361137057634e487b7160e01b5f52602260045260245ffd5b50919050565b5f82518060208501845e5f920191825250919050565b60408152836040820152838560608301375f60608583018101829052601f19601f8701168301838103820160208501529081018490526001600160fb1b038411156113d5575f5ffd5b8360051b80866080840137016080019695505050505050565b5f602082840312156113fe575f5ffd5b815180151581146110e0575f5ffd5b601f82111561145457805f5260205f20601f840160051c810160208510156114325750805b601f840160051c820191505b81811015611451575f815560010161143e565b50505b505050565b81516001600160401b0381111561147257611472610f32565b61148681611480845461133e565b8461140d565b6020601f8211600181146114b8575f83156114a15750848201515b5f19600385901b1c1916600184901b178455611451565b5f84815260208120601f198516915b828110156114e757878501518255602094850194600190920191016114c7565b508482101561150457868401515f19600387901b60f8161c191681555b50505050600190811b0190555056fea26469706673582212203e44d0519870aa1c07c2faaa6bc70d2cdd946346bbe562fb67a2d2c6ae5417f364736f6c634300081c0033",
        "linkReferences": {}
    },
    "methodIdentifiers": {
        "getNullifiersByDomainAndEmailHashAndWalletAddress(string,string)": "b8112f2e",
        "getNullifiersByDomainAndWalletAddress(string)": "8b88d98d",
        "getPublicInputsOfAllProofs()": "0e3a0679",
        "getPublicInputsOfZkJwtProof(bytes32)": "85071923",
        "isNullifierAlreadyStoredOnChain(bytes32)": "69f578d3",
        "nullifiers(bytes32)": "2997e86b",
        "nullifiersByDomainAndEmailHashAndWalletAddresses(string,string,address)": "3fbdc353",
        "nullifiersByDomainAndWalletAddresses(string,address)": "234b18f3",
        "publicInputsOfAllProofs(uint256)": "0a0732fc",
        "publicInputsOfZkJwtProofs(bytes32)": "f9710552",
        "recordPublicInputsOfZkJwtProof(bytes,bytes32[],(string,bytes32,string,address,string))": "a8c1f469",
        "zkJwtProofVerifier()": "76b84804"
    },
    "id": 2
}