{"abi":[{"type":"constructor","inputs":[{"name":"_zkJwtProofVerifier","type":"address","internalType":"contract ZkJwtProofVerifier"}],"stateMutability":"nonpayable"},{"type":"function","name":"getNullifiersByDomainAndEmailHashAndWalletAddress","inputs":[{"name":"domain","type":"string","internalType":"string"},{"name":"emailHash","type":"string","internalType":"string"}],"outputs":[{"name":"_nullifierHash","type":"bytes32","internalType":"bytes32"}],"stateMutability":"view"},{"type":"function","name":"getNullifiersByDomainAndWalletAddress","inputs":[{"name":"domain","type":"string","internalType":"string"}],"outputs":[{"name":"_nullifierHash","type":"bytes32","internalType":"bytes32"}],"stateMutability":"view"},{"type":"function","name":"getPublicInputsOfAllProofs","inputs":[],"outputs":[{"name":"","type":"tuple[]","internalType":"struct DataType.PublicInput[]","components":[{"name":"domain","type":"string","internalType":"string"},{"name":"nullifierHash","type":"bytes32","internalType":"bytes32"},{"name":"emailHash","type":"string","internalType":"string"},{"name":"walletAddress","type":"address","internalType":"address"},{"name":"createdAt","type":"string","internalType":"string"}]}],"stateMutability":"view"},{"type":"function","name":"getPublicInputsOfZkJwtProof","inputs":[{"name":"nullifierHash","type":"bytes32","internalType":"bytes32"}],"outputs":[{"name":"_publicInput","type":"tuple","internalType":"struct DataType.PublicInput","components":[{"name":"domain","type":"string","internalType":"string"},{"name":"nullifierHash","type":"bytes32","internalType":"bytes32"},{"name":"emailHash","type":"string","internalType":"string"},{"name":"walletAddress","type":"address","internalType":"address"},{"name":"createdAt","type":"string","internalType":"string"}]}],"stateMutability":"view"},{"type":"function","name":"isNullifierAlreadyStoredOnChain","inputs":[{"name":"nullifierHash","type":"bytes32","internalType":"bytes32"}],"outputs":[{"name":"","type":"bool","internalType":"bool"}],"stateMutability":"view"},{"type":"function","name":"nullifiers","inputs":[{"name":"nullifierHash","type":"bytes32","internalType":"bytes32"}],"outputs":[{"name":"isNullified","type":"bool","internalType":"bool"}],"stateMutability":"view"},{"type":"function","name":"nullifiersByDomainAndEmailHashAndWalletAddresses","inputs":[{"name":"domain","type":"string","internalType":"string"},{"name":"emailHash","type":"string","internalType":"string"},{"name":"walletAddress","type":"address","internalType":"address"}],"outputs":[{"name":"nullifierHash","type":"bytes32","internalType":"bytes32"}],"stateMutability":"view"},{"type":"function","name":"nullifiersByDomainAndWalletAddresses","inputs":[{"name":"domain","type":"string","internalType":"string"},{"name":"walletAddress","type":"address","internalType":"address"}],"outputs":[{"name":"nullifierHash","type":"bytes32","internalType":"bytes32"}],"stateMutability":"view"},{"type":"function","name":"publicInputsOfAllProofs","inputs":[{"name":"","type":"uint256","internalType":"uint256"}],"outputs":[{"name":"domain","type":"string","internalType":"string"},{"name":"nullifierHash","type":"bytes32","internalType":"bytes32"},{"name":"emailHash","type":"string","internalType":"string"},{"name":"walletAddress","type":"address","internalType":"address"},{"name":"createdAt","type":"string","internalType":"string"}],"stateMutability":"view"},{"type":"function","name":"publicInputsOfZkJwtProofs","inputs":[{"name":"nullifierHash","type":"bytes32","internalType":"bytes32"}],"outputs":[{"name":"domain","type":"string","internalType":"string"},{"name":"nullifierHash","type":"bytes32","internalType":"bytes32"},{"name":"emailHash","type":"string","internalType":"string"},{"name":"walletAddress","type":"address","internalType":"address"},{"name":"createdAt","type":"string","internalType":"string"}],"stateMutability":"view"},{"type":"function","name":"recordPublicInputsOfZkJwtProof","inputs":[{"name":"proof","type":"bytes","internalType":"bytes"},{"name":"publicInputs","type":"bytes32[]","internalType":"bytes32[]"},{"name":"separatedPublicInputs","type":"tuple","internalType":"struct DataType.PublicInput","components":[{"name":"domain","type":"string","internalType":"string"},{"name":"nullifierHash","type":"bytes32","internalType":"bytes32"},{"name":"emailHash","type":"string","internalType":"string"},{"name":"walletAddress","type":"address","internalType":"address"},{"name":"createdAt","type":"string","internalType":"string"}]}],"outputs":[{"name":"","type":"bool","internalType":"bool"}],"stateMutability":"nonpayable"},{"type":"function","name":"zkJwtProofVerifier","inputs":[],"outputs":[{"name":"","type":"address","internalType":"contract ZkJwtProofVerifier"}],"stateMutability":"view"}],"bytecode":{"object":"0x6080604052348015600f57600080fd5b5060405161167c38038061167c833981016040819052602c916050565b600080546001600160a01b0319166001600160a01b0392909216919091179055607e565b600060208284031215606157600080fd5b81516001600160a01b0381168114607757600080fd5b9392505050565b6115ef8061008d6000396000f3fe608060405234801561001057600080fd5b50600436106100b45760003560e01c806376b848041161007157806376b84804146101ec57806385071923146102175780638b88d98d14610237578063a8c1f4691461024a578063b8112f2e1461025d578063f97105521461027057600080fd5b80630a0732fc146100b95780630e3a0679146100e6578063234b18f3146100fb5780632997e86b146101445780633fbdc3531461017757806369f578d3146101c9575b600080fd5b6100cc6100c7366004610e05565b610283565b6040516100dd959493929190610e6e565b60405180910390f35b6100ee610470565b6040516100dd9190610f35565b610136610109366004611081565b81516020818401810180516003825292820194820194909420919093529091526000908152604090205481565b6040519081526020016100dd565b610167610152366004610e05565b60026020526000908152604090205460ff1681565b60405190151581526020016100dd565b6101366101853660046110ce565b825160208185018101805160048252928201958201959095209190945282518084018501805192815290850193850193909320925291526000908152604090205481565b6101676101d7366004610e05565b60009081526002602052604090205460ff1690565b6000546101ff906001600160a01b031681565b6040516001600160a01b0390911681526020016100dd565b61022a610225366004610e05565b6106a6565b6040516100dd9190611145565b61013661024536600461115f565b61090c565b61016761025836600461129e565b610940565b61013661026b366004611369565b610d5e565b6100cc61027e366004610e05565b610daf565b6005818154811061029357600080fd5b90600052602060002090600502016000915090508060000180546102b6906113d0565b80601f01602080910402602001604051908101604052809291908181526020018280546102e2906113d0565b801561032f5780601f106103045761010080835404028352916020019161032f565b820191906000526020600020905b81548152906001019060200180831161031257829003601f168201915b50505050509080600101549080600201805461034a906113d0565b80601f0160208091040260200160405190810160405280929190818152602001828054610376906113d0565b80156103c35780601f10610398576101008083540402835291602001916103c3565b820191906000526020600020905b8154815290600101906020018083116103a657829003601f168201915b505050600384015460048501805494956001600160a01b039092169491935091506103ed906113d0565b80601f0160208091040260200160405190810160405280929190818152602001828054610419906113d0565b80156104665780601f1061043b57610100808354040283529160200191610466565b820191906000526020600020905b81548152906001019060200180831161044957829003601f168201915b5050505050905085565b60606005805480602002602001604051908101604052809291908181526020016000905b8282101561069d57838290600052602060002090600502016040518060a00160405290816000820180546104c7906113d0565b80601f01602080910402602001604051908101604052809291908181526020018280546104f3906113d0565b80156105405780601f1061051557610100808354040283529160200191610540565b820191906000526020600020905b81548152906001019060200180831161052357829003601f168201915b5050505050815260200160018201548152602001600282018054610563906113d0565b80601f016020809104026020016040519081016040528092919081815260200182805461058f906113d0565b80156105dc5780601f106105b1576101008083540402835291602001916105dc565b820191906000526020600020905b8154815290600101906020018083116105bf57829003601f168201915b505050918352505060038201546001600160a01b0316602082015260048201805460409092019161060c906113d0565b80601f0160208091040260200160405190810160405280929190818152602001828054610638906113d0565b80156106855780601f1061065a57610100808354040283529160200191610685565b820191906000526020600020905b81548152906001019060200180831161066857829003601f168201915b50505050508152505081526020019060010190610494565b50505050905090565b6106ae610dca565b60008281526002602052604090205460ff1615156001146107165760405162461bcd60e51b815260206004820181905260248201527f4120676976656e206e756c6c69666965724861736820697320696e76616c696460448201526064015b60405180910390fd5b60008281526001602052604090819020815160a0810190925280548290829061073e906113d0565b80601f016020809104026020016040519081016040528092919081815260200182805461076a906113d0565b80156107b75780601f1061078c576101008083540402835291602001916107b7565b820191906000526020600020905b81548152906001019060200180831161079a57829003601f168201915b50505050508152602001600182015481526020016002820180546107da906113d0565b80601f0160208091040260200160405190810160405280929190818152602001828054610806906113d0565b80156108535780601f1061082857610100808354040283529160200191610853565b820191906000526020600020905b81548152906001019060200180831161083657829003601f168201915b505050918352505060038201546001600160a01b03166020820152600482018054604090920191610883906113d0565b80601f01602080910402602001604051908101604052809291908181526020018280546108af906113d0565b80156108fc5780601f106108d1576101008083540402835291602001916108fc565b820191906000526020600020905b8154815290600101906020018083116108df57829003601f168201915b5050505050815250509050919050565b600060038260405161091e919061140a565b9081526040805160209281900383019020336000908152925290205492915050565b60008054604051639f652bc960e01b815282916001600160a01b031690639f652bc990610977908a908a908a908a90600401611426565b602060405180830381865afa158015610994573d6000803e3d6000fd5b505050506040513d601f19601f820116820180604052508101906109b8919061148a565b905080610a115760405162461bcd60e51b815260206004820152602160248201527f4120676976656e205a4b2d4a57542070726f6f66206973206e6f742076616c696044820152601960fa1b606482015260840161070d565b82606001516001600160a01b0316336001600160a01b031614610aaa5760405162461bcd60e51b8152602060048201526044602482018190527f412063616c6c65722061646472657373206d757374206265206120676976656e908201527f207365706172617465645075626c6963496e707574732e77616c6c65744164646064820152637265737360e01b608482015260a40161070d565b610ab2610dca565b83518152602080850151818301819052604080870151818501526060808801516001600160a01b03169085015260808088015190850152600091825260019092522081518291908190610b0590826114fb565b506020820151600182015560408201516002820190610b2490826114fb565b5060608201516003820180546001600160a01b0319166001600160a01b0390921691909117905560808201516004820190610b5f90826114fb565b50505060208082015160009081526002909152604090205460ff1615610c065760405162461bcd60e51b815260206004820152605060248201527f4120676976656e206e756c6c69666965724861736820697320616c726561647960448201527f20757365642c207768696368206d65616e73206120676976656e2070726f6f6660648201526f081a5cc8185b1c9958591e481d5cd95960821b608482015260a40161070d565b6020808201805160009081526002909252604091829020805460ff1916600117905551825191519091600391610c3c919061140a565b9081526040805160209281900383018120336000908152908452919091209290925582015182519091600491610c719161140a565b90815260200160405180910390208260400151604051610c91919061140a565b9081526040805191829003602090810190922033600090815292528120919091556005805460018101825591819052825183929091027f036b6384b5eca791c62761152d0c79bb0604c104a5fb6f4eb0703f3154bb3db001908190610cf690826114fb565b506020820151600182015560408201516002820190610d1590826114fb565b5060608201516003820180546001600160a01b0319166001600160a01b0390921691909117905560808201516004820190610d5090826114fb565b505050505095945050505050565b6000600483604051610d70919061140a565b908152602001604051809103902082604051610d8c919061140a565b908152604080516020928190038301902033600090815292529020549392505050565b6001602052600090815260409020805481906102b6906113d0565b6040518060a0016040528060608152602001600080191681526020016060815260200160006001600160a01b03168152602001606081525090565b600060208284031215610e1757600080fd5b5035919050565b60005b83811015610e39578181015183820152602001610e21565b50506000910152565b60008151808452610e5a816020860160208601610e1e565b601f01601f19169290920160200192915050565b60a081526000610e8160a0830188610e42565b8660208401528281036040840152610e998187610e42565b6001600160a01b038616606085015283810360808501529050610ebc8185610e42565b98975050505050505050565b6000815160a08452610edd60a0850182610e42565b90506020830151602085015260408301518482036040860152610f008282610e42565b91505060018060a01b03606084015116606085015260808301518482036080860152610f2c8282610e42565b95945050505050565b6000602082016020835280845180835260408501915060408160051b86010192506020860160005b82811015610f8e57603f19878603018452610f79858351610ec8565b94506020938401939190910190600101610f5d565b50929695505050505050565b634e487b7160e01b600052604160045260246000fd5b60405160a081016001600160401b0381118282101715610fd257610fd2610f9a565b60405290565b600082601f830112610fe957600080fd5b81356001600160401b0381111561100257611002610f9a565b604051601f8201601f19908116603f011681016001600160401b038111828210171561103057611030610f9a565b60405281815283820160200185101561104857600080fd5b816020850160208301376000918101602001919091529392505050565b80356001600160a01b038116811461107c57600080fd5b919050565b6000806040838503121561109457600080fd5b82356001600160401b038111156110aa57600080fd5b6110b685828601610fd8565b9250506110c560208401611065565b90509250929050565b6000806000606084860312156110e357600080fd5b83356001600160401b038111156110f957600080fd5b61110586828701610fd8565b93505060208401356001600160401b0381111561112157600080fd5b61112d86828701610fd8565b92505061113c60408501611065565b90509250925092565b6020815260006111586020830184610ec8565b9392505050565b60006020828403121561117157600080fd5b81356001600160401b0381111561118757600080fd5b61119384828501610fd8565b949350505050565b60008083601f8401126111ad57600080fd5b5081356001600160401b038111156111c457600080fd5b6020830191508360208260051b85010111156111df57600080fd5b9250929050565b600060a082840312156111f857600080fd5b611200610fb0565b905081356001600160401b0381111561121857600080fd5b61122484828501610fd8565b8252506020828101359082015260408201356001600160401b0381111561124a57600080fd5b61125684828501610fd8565b60408301525061126860608301611065565b606082015260808201356001600160401b0381111561128657600080fd5b61129284828501610fd8565b60808301525092915050565b6000806000806000606086880312156112b657600080fd5b85356001600160401b038111156112cc57600080fd5b8601601f810188136112dd57600080fd5b80356001600160401b038111156112f357600080fd5b88602082840101111561130557600080fd5b6020918201965094508601356001600160401b0381111561132557600080fd5b6113318882890161119b565b90945092505060408601356001600160401b0381111561135057600080fd5b61135c888289016111e6565b9150509295509295909350565b6000806040838503121561137c57600080fd5b82356001600160401b0381111561139257600080fd5b61139e85828601610fd8565b92505060208301356001600160401b038111156113ba57600080fd5b6113c685828601610fd8565b9150509250929050565b600181811c908216806113e457607f821691505b60208210810361140457634e487b7160e01b600052602260045260246000fd5b50919050565b6000825161141c818460208701610e1e565b9190910192915050565b6040815283604082015283856060830137600060608583018101829052601f19601f8701168301838103820160208501529081018490526001600160fb1b0384111561147157600080fd5b8360051b80866080840137016080019695505050505050565b60006020828403121561149c57600080fd5b8151801515811461115857600080fd5b601f8211156114f657806000526020600020601f840160051c810160208510156114d35750805b601f840160051c820191505b818110156114f357600081556001016114df565b50505b505050565b81516001600160401b0381111561151457611514610f9a565b6115288161152284546113d0565b846114ac565b6020601f82116001811461155c57600083156115445750848201515b600019600385901b1c1916600184901b1784556114f3565b600084815260208120601f198516915b8281101561158c578785015182556020948501946001909201910161156c565b50848210156115aa5786840151600019600387901b60f8161c191681555b50505050600190811b0190555056fea26469706673582212201e638a35e63c297ad9971258955c32f88fb53674e3903e4bb27ad124cb65a7de64736f6c634300081c0033","linkReferences":{}},"methodIdentifiers":{"getNullifiersByDomainAndEmailHashAndWalletAddress(string,string)":"b8112f2e","getNullifiersByDomainAndWalletAddress(string)":"8b88d98d","getPublicInputsOfAllProofs()":"0e3a0679","getPublicInputsOfZkJwtProof(bytes32)":"85071923","isNullifierAlreadyStoredOnChain(bytes32)":"69f578d3","nullifiers(bytes32)":"2997e86b","nullifiersByDomainAndEmailHashAndWalletAddresses(string,string,address)":"3fbdc353","nullifiersByDomainAndWalletAddresses(string,address)":"234b18f3","publicInputsOfAllProofs(uint256)":"0a0732fc","publicInputsOfZkJwtProofs(bytes32)":"f9710552","recordPublicInputsOfZkJwtProof(bytes,bytes32[],(string,bytes32,string,address,string))":"a8c1f469","zkJwtProofVerifier()":"76b84804"},"id":22}