{"abi":[{"type":"constructor","inputs":[{"name":"_zkJwtProofVerifier","type":"address","internalType":"contract ZkJwtProofVerifier"}],"stateMutability":"nonpayable"},{"type":"function","name":"getPublicInputsOfAllProofs","inputs":[],"outputs":[{"name":"","type":"tuple[]","internalType":"struct DataType.PublicInput[]","components":[{"name":"domain","type":"string","internalType":"string"},{"name":"nullifierHash","type":"bytes32","internalType":"bytes32"},{"name":"createdAt","type":"string","internalType":"string"}]}],"stateMutability":"view"},{"type":"function","name":"getPublicInputsOfZkJwtProof","inputs":[{"name":"nullifierHash","type":"bytes32","internalType":"bytes32"}],"outputs":[{"name":"_publicInput","type":"tuple","internalType":"struct DataType.PublicInput","components":[{"name":"domain","type":"string","internalType":"string"},{"name":"nullifierHash","type":"bytes32","internalType":"bytes32"},{"name":"createdAt","type":"string","internalType":"string"}]}],"stateMutability":"view"},{"type":"function","name":"nullifiers","inputs":[{"name":"nullifierHash","type":"bytes32","internalType":"bytes32"}],"outputs":[{"name":"isNullified","type":"bool","internalType":"bool"}],"stateMutability":"view"},{"type":"function","name":"publicInputsOfAllProofs","inputs":[{"name":"","type":"uint256","internalType":"uint256"}],"outputs":[{"name":"domain","type":"string","internalType":"string"},{"name":"nullifierHash","type":"bytes32","internalType":"bytes32"},{"name":"createdAt","type":"string","internalType":"string"}],"stateMutability":"view"},{"type":"function","name":"publicInputsOfZkJwtProofs","inputs":[{"name":"nullifierHash","type":"bytes32","internalType":"bytes32"}],"outputs":[{"name":"domain","type":"string","internalType":"string"},{"name":"nullifierHash","type":"bytes32","internalType":"bytes32"},{"name":"createdAt","type":"string","internalType":"string"}],"stateMutability":"view"},{"type":"function","name":"recordPublicInputsOfZkJwtProof","inputs":[{"name":"proof","type":"bytes","internalType":"bytes"},{"name":"publicInputs","type":"bytes32[]","internalType":"bytes32[]"},{"name":"separatedPublicInputs","type":"tuple","internalType":"struct DataType.PublicInput","components":[{"name":"domain","type":"string","internalType":"string"},{"name":"nullifierHash","type":"bytes32","internalType":"bytes32"},{"name":"createdAt","type":"string","internalType":"string"}]}],"outputs":[{"name":"","type":"bool","internalType":"bool"}],"stateMutability":"nonpayable"},{"type":"function","name":"zkJwtProofVerifier","inputs":[],"outputs":[{"name":"","type":"address","internalType":"contract ZkJwtProofVerifier"}],"stateMutability":"view"}],"bytecode":{"object":"0x6080604052348015600f57600080fd5b50604051610ee4380380610ee4833981016040819052602c916050565b600080546001600160a01b0319166001600160a01b0392909216919091179055607e565b600060208284031215606157600080fd5b81516001600160a01b0381168114607757600080fd5b9392505050565b610e578061008d6000396000f3fe608060405234801561001057600080fd5b506004361061007d5760003560e01c80632c43aa8c1161005b5780632c43aa8c146100f557806376b84804146101085780638507192314610133578063f97105521461015357600080fd5b80630a0732fc146100825780630e3a0679146100ad5780632997e86b146100c2575b600080fd5b6100956100903660046108a1565b610166565b6040516100a493929190610900565b60405180910390f35b6100b56102b0565b6040516100a49190610976565b6100e56100d03660046108a1565b60026020526000908152604090205460ff1681565b60405190151581526020016100a4565b6100e5610103366004610b6a565b61043d565b60005461011b906001600160a01b031681565b6040516001600160a01b0390911681526020016100a4565b6101466101413660046108a1565b6106ba565b6040516100a49190610c39565b6100956101613660046108a1565b610886565b6003818154811061017657600080fd5b906000526020600020906003020160009150905080600001805461019990610c53565b80601f01602080910402602001604051908101604052809291908181526020018280546101c590610c53565b80156102125780601f106101e757610100808354040283529160200191610212565b820191906000526020600020905b8154815290600101906020018083116101f557829003601f168201915b50505050509080600101549080600201805461022d90610c53565b80601f016020809104026020016040519081016040528092919081815260200182805461025990610c53565b80156102a65780601f1061027b576101008083540402835291602001916102a6565b820191906000526020600020905b81548152906001019060200180831161028957829003601f168201915b5050505050905083565b60606003805480602002602001604051908101604052809291908181526020016000905b82821015610434578382906000526020600020906003020160405180606001604052908160008201805461030790610c53565b80601f016020809104026020016040519081016040528092919081815260200182805461033390610c53565b80156103805780601f1061035557610100808354040283529160200191610380565b820191906000526020600020905b81548152906001019060200180831161036357829003601f168201915b50505050508152602001600182015481526020016002820180546103a390610c53565b80601f01602080910402602001604051908101604052809291908181526020018280546103cf90610c53565b801561041c5780601f106103f15761010080835404028352916020019161041c565b820191906000526020600020905b8154815290600101906020018083116103ff57829003601f168201915b505050505081525050815260200190600101906102d4565b50505050905090565b60008054604051639f652bc960e01b815282916001600160a01b031690639f652bc990610474908a908a908a908a90600401610c8d565b602060405180830381865afa158015610491573d6000803e3d6000fd5b505050506040513d601f19601f820116820180604052508101906104b59190610cf1565b9050806105135760405162461bcd60e51b815260206004820152602160248201527f4120676976656e205a4b2d4a57542070726f6f66206973206e6f742076616c696044820152601960fa1b60648201526084015b60405180910390fd5b60408051606080820183528082526000602080840182815284860193845288518552888201519081905288860151909352918152600190915291909120815182919081906105619082610d62565b5060208201516001820155604082015160028201906105809082610d62565b50505060208082015160009081526002909152604090205460ff16156106275760405162461bcd60e51b815260206004820152605060248201527f4120676976656e206e756c6c69666965724861736820697320616c726561647960448201527f20757365642c207768696368206d65616e73206120676976656e2070726f6f6660648201526f081a5cc8185b1c9958591e481d5cd95960821b608482015260a40161050a565b6020808201516000908152600290915260408120805460ff191660019081179091556003805491820181559182905282518392919091027fc2575a0e9e593c00f959f8c92f12db2869c3395a3b0502d05e2516446f71f85b0190819061068d9082610d62565b5060208201516001820155604082015160028201906106ac9082610d62565b505050505095945050505050565b6040805160608082018352808252600060208301529181019190915260008281526002602052604090205460ff1615156001146107395760405162461bcd60e51b815260206004820181905260248201527f4120676976656e206e756c6c69666965724861736820697320696e76616c6964604482015260640161050a565b6000828152600160205260409081902081516060810190925280548290829061076190610c53565b80601f016020809104026020016040519081016040528092919081815260200182805461078d90610c53565b80156107da5780601f106107af576101008083540402835291602001916107da565b820191906000526020600020905b8154815290600101906020018083116107bd57829003601f168201915b50505050508152602001600182015481526020016002820180546107fd90610c53565b80601f016020809104026020016040519081016040528092919081815260200182805461082990610c53565b80156108765780601f1061084b57610100808354040283529160200191610876565b820191906000526020600020905b81548152906001019060200180831161085957829003601f168201915b5050505050815250509050919050565b60016020526000908152604090208054819061019990610c53565b6000602082840312156108b357600080fd5b5035919050565b6000815180845260005b818110156108e0576020818501810151868301820152016108c4565b506000602082860101526020601f19601f83011685010191505092915050565b60608152600061091360608301866108ba565b846020840152828103604084015261092b81856108ba565b9695505050505050565b600081516060845261094a60608501826108ba565b9050602083015160208501526040830151848203604086015261096d82826108ba565b95945050505050565b6000602082016020835280845180835260408501915060408160051b86010192506020860160005b828110156109cf57603f198786030184526109ba858351610935565b9450602093840193919091019060010161099e565b50929695505050505050565b60008083601f8401126109ed57600080fd5b50813567ffffffffffffffff811115610a0557600080fd5b6020830191508360208260051b8501011115610a2057600080fd5b9250929050565b634e487b7160e01b600052604160045260246000fd5b600082601f830112610a4e57600080fd5b813567ffffffffffffffff811115610a6857610a68610a27565b604051601f8201601f19908116603f0116810167ffffffffffffffff81118282101715610a9757610a97610a27565b604052818152838201602001851015610aaf57600080fd5b816020850160208301376000918101602001919091529392505050565b600060608284031215610ade57600080fd5b6040516060810167ffffffffffffffff81118282101715610b0157610b01610a27565b604052905080823567ffffffffffffffff811115610b1e57600080fd5b610b2a85828601610a3d565b82525060208381013590820152604083013567ffffffffffffffff811115610b5157600080fd5b610b5d85828601610a3d565b6040830152505092915050565b600080600080600060608688031215610b8257600080fd5b853567ffffffffffffffff811115610b9957600080fd5b8601601f81018813610baa57600080fd5b803567ffffffffffffffff811115610bc157600080fd5b886020828401011115610bd357600080fd5b60209182019650945086013567ffffffffffffffff811115610bf457600080fd5b610c00888289016109db565b909450925050604086013567ffffffffffffffff811115610c2057600080fd5b610c2c88828901610acc565b9150509295509295909350565b602081526000610c4c6020830184610935565b9392505050565b600181811c90821680610c6757607f821691505b602082108103610c8757634e487b7160e01b600052602260045260246000fd5b50919050565b6040815283604082015283856060830137600060608583018101829052601f19601f8701168301838103820160208501529081018490526001600160fb1b03841115610cd857600080fd5b8360051b80866080840137016080019695505050505050565b600060208284031215610d0357600080fd5b81518015158114610c4c57600080fd5b601f821115610d5d57806000526020600020601f840160051c81016020851015610d3a5750805b601f840160051c820191505b81811015610d5a5760008155600101610d46565b50505b505050565b815167ffffffffffffffff811115610d7c57610d7c610a27565b610d9081610d8a8454610c53565b84610d13565b6020601f821160018114610dc45760008315610dac5750848201515b600019600385901b1c1916600184901b178455610d5a565b600084815260208120601f198516915b82811015610df45787850151825560209485019460019092019101610dd4565b5084821015610e125786840151600019600387901b60f8161c191681555b50505050600190811b0190555056fea26469706673582212201a1c22e50df05b2901041427ad65eccc33ba2305a9d4bc984fccf05194fb891664736f6c634300081c0033","linkReferences":{}},"methodIdentifiers":{"getPublicInputsOfAllProofs()":"0e3a0679","getPublicInputsOfZkJwtProof(bytes32)":"85071923","nullifiers(bytes32)":"2997e86b","publicInputsOfAllProofs(uint256)":"0a0732fc","publicInputsOfZkJwtProofs(bytes32)":"f9710552","recordPublicInputsOfZkJwtProof(bytes,bytes32[],(string,bytes32,string))":"2c43aa8c","zkJwtProofVerifier()":"76b84804"},"id":22}