{"abi":[{"type":"constructor","inputs":[{"name":"_zkJwtProofVerifier","type":"address","internalType":"contract ZkJwtProofVerifier"}],"stateMutability":"nonpayable"},{"type":"function","name":"getNullifiersByDomainAndEmailHashAndWalletAddress","inputs":[{"name":"domain","type":"string","internalType":"string"},{"name":"emailHash","type":"string","internalType":"string"},{"name":"walletAddress","type":"address","internalType":"address"}],"outputs":[{"name":"_nullifierHash","type":"bytes32","internalType":"bytes32"}],"stateMutability":"view"},{"type":"function","name":"getNullifiersByDomainAndWalletAddress","inputs":[{"name":"domain","type":"string","internalType":"string"},{"name":"walletAddress","type":"address","internalType":"address"}],"outputs":[{"name":"_nullifierHash","type":"bytes32","internalType":"bytes32"}],"stateMutability":"view"},{"type":"function","name":"getPublicInputsOfAllProofs","inputs":[],"outputs":[{"name":"","type":"tuple[]","internalType":"struct DataType.PublicInput[]","components":[{"name":"domain","type":"string","internalType":"string"},{"name":"nullifierHash","type":"bytes32","internalType":"bytes32"},{"name":"emailHash","type":"string","internalType":"string"},{"name":"walletAddress","type":"address","internalType":"address"},{"name":"createdAt","type":"string","internalType":"string"}]}],"stateMutability":"view"},{"type":"function","name":"getPublicInputsOfZkJwtProof","inputs":[{"name":"nullifierHash","type":"bytes32","internalType":"bytes32"}],"outputs":[{"name":"_publicInput","type":"tuple","internalType":"struct DataType.PublicInput","components":[{"name":"domain","type":"string","internalType":"string"},{"name":"nullifierHash","type":"bytes32","internalType":"bytes32"},{"name":"emailHash","type":"string","internalType":"string"},{"name":"walletAddress","type":"address","internalType":"address"},{"name":"createdAt","type":"string","internalType":"string"}]}],"stateMutability":"view"},{"type":"function","name":"isNullifierAlreadyStoredOnChain","inputs":[{"name":"nullifierHash","type":"bytes32","internalType":"bytes32"}],"outputs":[{"name":"","type":"bool","internalType":"bool"}],"stateMutability":"view"},{"type":"function","name":"nullifiers","inputs":[{"name":"nullifierHash","type":"bytes32","internalType":"bytes32"}],"outputs":[{"name":"isNullified","type":"bool","internalType":"bool"}],"stateMutability":"view"},{"type":"function","name":"nullifiersByDomainAndEmailHashAndWalletAddresses","inputs":[{"name":"domain","type":"string","internalType":"string"},{"name":"emailHash","type":"string","internalType":"string"},{"name":"walletAddress","type":"address","internalType":"address"}],"outputs":[{"name":"nullifierHash","type":"bytes32","internalType":"bytes32"}],"stateMutability":"view"},{"type":"function","name":"nullifiersByDomainAndWalletAddresses","inputs":[{"name":"domain","type":"string","internalType":"string"},{"name":"walletAddress","type":"address","internalType":"address"}],"outputs":[{"name":"nullifierHash","type":"bytes32","internalType":"bytes32"}],"stateMutability":"view"},{"type":"function","name":"publicInputsOfAllProofs","inputs":[{"name":"","type":"uint256","internalType":"uint256"}],"outputs":[{"name":"domain","type":"string","internalType":"string"},{"name":"nullifierHash","type":"bytes32","internalType":"bytes32"},{"name":"emailHash","type":"string","internalType":"string"},{"name":"walletAddress","type":"address","internalType":"address"},{"name":"createdAt","type":"string","internalType":"string"}],"stateMutability":"view"},{"type":"function","name":"publicInputsOfZkJwtProofs","inputs":[{"name":"nullifierHash","type":"bytes32","internalType":"bytes32"}],"outputs":[{"name":"domain","type":"string","internalType":"string"},{"name":"nullifierHash","type":"bytes32","internalType":"bytes32"},{"name":"emailHash","type":"string","internalType":"string"},{"name":"walletAddress","type":"address","internalType":"address"},{"name":"createdAt","type":"string","internalType":"string"}],"stateMutability":"view"},{"type":"function","name":"recordPublicInputsOfZkJwtProof","inputs":[{"name":"proof","type":"bytes","internalType":"bytes"},{"name":"publicInputs","type":"bytes32[]","internalType":"bytes32[]"},{"name":"separatedPublicInputs","type":"tuple","internalType":"struct DataType.PublicInput","components":[{"name":"domain","type":"string","internalType":"string"},{"name":"nullifierHash","type":"bytes32","internalType":"bytes32"},{"name":"emailHash","type":"string","internalType":"string"},{"name":"walletAddress","type":"address","internalType":"address"},{"name":"createdAt","type":"string","internalType":"string"}]}],"outputs":[{"name":"","type":"bool","internalType":"bool"}],"stateMutability":"nonpayable"},{"type":"function","name":"zkJwtProofVerifier","inputs":[],"outputs":[{"name":"","type":"address","internalType":"contract ZkJwtProofVerifier"}],"stateMutability":"view"}],"bytecode":{"object":"0x6080604052348015600f57600080fd5b506040516115f33803806115f3833981016040819052602c916050565b600080546001600160a01b0319166001600160a01b0392909216919091179055607e565b600060208284031215606157600080fd5b81516001600160a01b0381168114607757600080fd5b9392505050565b6115668061008d6000396000f3fe608060405234801561001057600080fd5b50600436106100b45760003560e01c806369f578d31161007157806369f578d3146101dc57806376b84804146101ff57806381e666e91461022a578063850719231461023d578063a8c1f4691461025d578063f97105521461027057600080fd5b80630a0732fc146100b95780630e3a0679146100e6578063234b18f3146100fb5780632997e86b146101445780632db8395d146101775780633fbdc3531461018a575b600080fd5b6100cc6100c7366004610e1f565b610283565b6040516100dd959493929190610e88565b60405180910390f35b6100ee610470565b6040516100dd9190610f4f565b61013661010936600461109b565b81516020818401810180516003825292820194820194909420919093529091526000908152604090205481565b6040519081526020016100dd565b610167610152366004610e1f565b60026020526000908152604090205460ff1681565b60405190151581526020016100dd565b6101366101853660046110e8565b6106a6565b6101366101983660046110e8565b825160208185018101805160048252928201958201959095209190945282518084018501805192815290850193850193909320925291526000908152604090205481565b6101676101ea366004610e1f565b60009081526002602052604090205460ff1690565b600054610212906001600160a01b031681565b6040516001600160a01b0390911681526020016100dd565b61013661023836600461109b565b610704565b61025061024b366004610e1f565b610745565b6040516100dd919061115f565b61016761026b36600461127c565b6109ab565b6100cc61027e366004610e1f565b610dc9565b6005818154811061029357600080fd5b90600052602060002090600502016000915090508060000180546102b690611347565b80601f01602080910402602001604051908101604052809291908181526020018280546102e290611347565b801561032f5780601f106103045761010080835404028352916020019161032f565b820191906000526020600020905b81548152906001019060200180831161031257829003601f168201915b50505050509080600101549080600201805461034a90611347565b80601f016020809104026020016040519081016040528092919081815260200182805461037690611347565b80156103c35780601f10610398576101008083540402835291602001916103c3565b820191906000526020600020905b8154815290600101906020018083116103a657829003601f168201915b505050600384015460048501805494956001600160a01b039092169491935091506103ed90611347565b80601f016020809104026020016040519081016040528092919081815260200182805461041990611347565b80156104665780601f1061043b57610100808354040283529160200191610466565b820191906000526020600020905b81548152906001019060200180831161044957829003601f168201915b5050505050905085565b60606005805480602002602001604051908101604052809291908181526020016000905b8282101561069d57838290600052602060002090600502016040518060a00160405290816000820180546104c790611347565b80601f01602080910402602001604051908101604052809291908181526020018280546104f390611347565b80156105405780601f1061051557610100808354040283529160200191610540565b820191906000526020600020905b81548152906001019060200180831161052357829003601f168201915b505050505081526020016001820154815260200160028201805461056390611347565b80601f016020809104026020016040519081016040528092919081815260200182805461058f90611347565b80156105dc5780601f106105b1576101008083540402835291602001916105dc565b820191906000526020600020905b8154815290600101906020018083116105bf57829003601f168201915b505050918352505060038201546001600160a01b0316602082015260048201805460409092019161060c90611347565b80601f016020809104026020016040519081016040528092919081815260200182805461063890611347565b80156106855780601f1061065a57610100808354040283529160200191610685565b820191906000526020600020905b81548152906001019060200180831161066857829003601f168201915b50505050508152505081526020019060010190610494565b50505050905090565b60006004846040516106b89190611381565b9081526020016040518091039020836040516106d49190611381565b908152604080519182900360209081019092206001600160a01b0385166000908152925290205490509392505050565b60006003836040516107169190611381565b908152604080519182900360209081019092206001600160a01b03851660009081529252902054905092915050565b61074d610de4565b60008281526002602052604090205460ff1615156001146107b55760405162461bcd60e51b815260206004820181905260248201527f4120676976656e206e756c6c69666965724861736820697320696e76616c696460448201526064015b60405180910390fd5b60008281526001602052604090819020815160a081019092528054829082906107dd90611347565b80601f016020809104026020016040519081016040528092919081815260200182805461080990611347565b80156108565780601f1061082b57610100808354040283529160200191610856565b820191906000526020600020905b81548152906001019060200180831161083957829003601f168201915b505050505081526020016001820154815260200160028201805461087990611347565b80601f01602080910402602001604051908101604052809291908181526020018280546108a590611347565b80156108f25780601f106108c7576101008083540402835291602001916108f2565b820191906000526020600020905b8154815290600101906020018083116108d557829003601f168201915b505050918352505060038201546001600160a01b0316602082015260048201805460409092019161092290611347565b80601f016020809104026020016040519081016040528092919081815260200182805461094e90611347565b801561099b5780601f106109705761010080835404028352916020019161099b565b820191906000526020600020905b81548152906001019060200180831161097e57829003601f168201915b5050505050815250509050919050565b60008054604051639f652bc960e01b815282916001600160a01b031690639f652bc9906109e2908a908a908a908a9060040161139d565b602060405180830381865afa1580156109ff573d6000803e3d6000fd5b505050506040513d601f19601f82011682018060405250810190610a239190611401565b905080610a7c5760405162461bcd60e51b815260206004820152602160248201527f4120676976656e205a4b2d4a57542070726f6f66206973206e6f742076616c696044820152601960fa1b60648201526084016107ac565b82606001516001600160a01b0316336001600160a01b031614610b155760405162461bcd60e51b8152602060048201526044602482018190527f412063616c6c65722061646472657373206d757374206265206120676976656e908201527f207365706172617465645075626c6963496e707574732e77616c6c65744164646064820152637265737360e01b608482015260a4016107ac565b610b1d610de4565b83518152602080850151818301819052604080870151818501526060808801516001600160a01b03169085015260808088015190850152600091825260019092522081518291908190610b709082611472565b506020820151600182015560408201516002820190610b8f9082611472565b5060608201516003820180546001600160a01b0319166001600160a01b0390921691909117905560808201516004820190610bca9082611472565b50505060208082015160009081526002909152604090205460ff1615610c715760405162461bcd60e51b815260206004820152605060248201527f4120676976656e206e756c6c69666965724861736820697320616c726561647960448201527f20757365642c207768696368206d65616e73206120676976656e2070726f6f6660648201526f081a5cc8185b1c9958591e481d5cd95960821b608482015260a4016107ac565b6020808201805160009081526002909252604091829020805460ff1916600117905551825191519091600391610ca79190611381565b9081526040805160209281900383018120336000908152908452919091209290925582015182519091600491610cdc91611381565b90815260200160405180910390208260400151604051610cfc9190611381565b9081526040805191829003602090810190922033600090815292528120919091556005805460018101825591819052825183929091027f036b6384b5eca791c62761152d0c79bb0604c104a5fb6f4eb0703f3154bb3db001908190610d619082611472565b506020820151600182015560408201516002820190610d809082611472565b5060608201516003820180546001600160a01b0319166001600160a01b0390921691909117905560808201516004820190610dbb9082611472565b505050505095945050505050565b6001602052600090815260409020805481906102b690611347565b6040518060a0016040528060608152602001600080191681526020016060815260200160006001600160a01b03168152602001606081525090565b600060208284031215610e3157600080fd5b5035919050565b60005b83811015610e53578181015183820152602001610e3b565b50506000910152565b60008151808452610e74816020860160208601610e38565b601f01601f19169290920160200192915050565b60a081526000610e9b60a0830188610e5c565b8660208401528281036040840152610eb38187610e5c565b6001600160a01b038616606085015283810360808501529050610ed68185610e5c565b98975050505050505050565b6000815160a08452610ef760a0850182610e5c565b90506020830151602085015260408301518482036040860152610f1a8282610e5c565b91505060018060a01b03606084015116606085015260808301518482036080860152610f468282610e5c565b95945050505050565b6000602082016020835280845180835260408501915060408160051b86010192506020860160005b82811015610fa857603f19878603018452610f93858351610ee2565b94506020938401939190910190600101610f77565b50929695505050505050565b634e487b7160e01b600052604160045260246000fd5b60405160a081016001600160401b0381118282101715610fec57610fec610fb4565b60405290565b600082601f83011261100357600080fd5b81356001600160401b0381111561101c5761101c610fb4565b604051601f8201601f19908116603f011681016001600160401b038111828210171561104a5761104a610fb4565b60405281815283820160200185101561106257600080fd5b816020850160208301376000918101602001919091529392505050565b80356001600160a01b038116811461109657600080fd5b919050565b600080604083850312156110ae57600080fd5b82356001600160401b038111156110c457600080fd5b6110d085828601610ff2565b9250506110df6020840161107f565b90509250929050565b6000806000606084860312156110fd57600080fd5b83356001600160401b0381111561111357600080fd5b61111f86828701610ff2565b93505060208401356001600160401b0381111561113b57600080fd5b61114786828701610ff2565b9250506111566040850161107f565b90509250925092565b6020815260006111726020830184610ee2565b9392505050565b60008083601f84011261118b57600080fd5b5081356001600160401b038111156111a257600080fd5b6020830191508360208260051b85010111156111bd57600080fd5b9250929050565b600060a082840312156111d657600080fd5b6111de610fca565b905081356001600160401b038111156111f657600080fd5b61120284828501610ff2565b8252506020828101359082015260408201356001600160401b0381111561122857600080fd5b61123484828501610ff2565b6040830152506112466060830161107f565b606082015260808201356001600160401b0381111561126457600080fd5b61127084828501610ff2565b60808301525092915050565b60008060008060006060868803121561129457600080fd5b85356001600160401b038111156112aa57600080fd5b8601601f810188136112bb57600080fd5b80356001600160401b038111156112d157600080fd5b8860208284010111156112e357600080fd5b6020918201965094508601356001600160401b0381111561130357600080fd5b61130f88828901611179565b90945092505060408601356001600160401b0381111561132e57600080fd5b61133a888289016111c4565b9150509295509295909350565b600181811c9082168061135b57607f821691505b60208210810361137b57634e487b7160e01b600052602260045260246000fd5b50919050565b60008251611393818460208701610e38565b9190910192915050565b6040815283604082015283856060830137600060608583018101829052601f19601f8701168301838103820160208501529081018490526001600160fb1b038411156113e857600080fd5b8360051b80866080840137016080019695505050505050565b60006020828403121561141357600080fd5b8151801515811461117257600080fd5b601f82111561146d57806000526020600020601f840160051c8101602085101561144a5750805b601f840160051c820191505b8181101561146a5760008155600101611456565b50505b505050565b81516001600160401b0381111561148b5761148b610fb4565b61149f816114998454611347565b84611423565b6020601f8211600181146114d357600083156114bb5750848201515b600019600385901b1c1916600184901b17845561146a565b600084815260208120601f198516915b8281101561150357878501518255602094850194600190920191016114e3565b50848210156115215786840151600019600387901b60f8161c191681555b50505050600190811b0190555056fea264697066735822122082bcbee9dd8c06db2f8abaacbe54ada09a8f840a8e5b3c674557dbda44b6944664736f6c634300081c0033","linkReferences":{}},"methodIdentifiers":{"getNullifiersByDomainAndEmailHashAndWalletAddress(string,string,address)":"2db8395d","getNullifiersByDomainAndWalletAddress(string,address)":"81e666e9","getPublicInputsOfAllProofs()":"0e3a0679","getPublicInputsOfZkJwtProof(bytes32)":"85071923","isNullifierAlreadyStoredOnChain(bytes32)":"69f578d3","nullifiers(bytes32)":"2997e86b","nullifiersByDomainAndEmailHashAndWalletAddresses(string,string,address)":"3fbdc353","nullifiersByDomainAndWalletAddresses(string,address)":"234b18f3","publicInputsOfAllProofs(uint256)":"0a0732fc","publicInputsOfZkJwtProofs(bytes32)":"f9710552","recordPublicInputsOfZkJwtProof(bytes,bytes32[],(string,bytes32,string,address,string))":"a8c1f469","zkJwtProofVerifier()":"76b84804"},"id":22}