{"abi":[{"type":"constructor","inputs":[{"name":"_zkJwtProofVerifier","type":"address","internalType":"contract ZkJwtProofVerifier"}],"stateMutability":"nonpayable"},{"type":"function","name":"getNullifiersByDomainAndEmailHashAndWalletAddresses","inputs":[{"name":"domain","type":"string","internalType":"string"},{"name":"emailHash","type":"string","internalType":"string"}],"outputs":[{"name":"_nullifierHash","type":"bytes32","internalType":"bytes32"}],"stateMutability":"view"},{"type":"function","name":"getPublicInputsOfAllProofs","inputs":[],"outputs":[{"name":"","type":"tuple[]","internalType":"struct DataType.PublicInput[]","components":[{"name":"domain","type":"string","internalType":"string"},{"name":"nullifierHash","type":"bytes32","internalType":"bytes32"},{"name":"emailHash","type":"string","internalType":"string"},{"name":"walletAddress","type":"address","internalType":"address"},{"name":"createdAt","type":"string","internalType":"string"}]}],"stateMutability":"view"},{"type":"function","name":"getPublicInputsOfZkJwtProof","inputs":[{"name":"nullifierHash","type":"bytes32","internalType":"bytes32"}],"outputs":[{"name":"_publicInput","type":"tuple","internalType":"struct DataType.PublicInput","components":[{"name":"domain","type":"string","internalType":"string"},{"name":"nullifierHash","type":"bytes32","internalType":"bytes32"},{"name":"emailHash","type":"string","internalType":"string"},{"name":"walletAddress","type":"address","internalType":"address"},{"name":"createdAt","type":"string","internalType":"string"}]}],"stateMutability":"view"},{"type":"function","name":"isNullifierAlreadyStoredOnChain","inputs":[{"name":"nullifierHash","type":"bytes32","internalType":"bytes32"}],"outputs":[{"name":"","type":"bool","internalType":"bool"}],"stateMutability":"view"},{"type":"function","name":"nullifiers","inputs":[{"name":"nullifierHash","type":"bytes32","internalType":"bytes32"}],"outputs":[{"name":"isNullified","type":"bool","internalType":"bool"}],"stateMutability":"view"},{"type":"function","name":"nullifiersByDomainAndEmailHashAndWalletAddresses","inputs":[{"name":"domain","type":"string","internalType":"string"},{"name":"emailHash","type":"string","internalType":"string"},{"name":"walletAddress","type":"address","internalType":"address"}],"outputs":[{"name":"nullifierHash","type":"bytes32","internalType":"bytes32"}],"stateMutability":"view"},{"type":"function","name":"publicInputsOfAllProofs","inputs":[{"name":"","type":"uint256","internalType":"uint256"}],"outputs":[{"name":"domain","type":"string","internalType":"string"},{"name":"nullifierHash","type":"bytes32","internalType":"bytes32"},{"name":"emailHash","type":"string","internalType":"string"},{"name":"walletAddress","type":"address","internalType":"address"},{"name":"createdAt","type":"string","internalType":"string"}],"stateMutability":"view"},{"type":"function","name":"publicInputsOfZkJwtProofs","inputs":[{"name":"nullifierHash","type":"bytes32","internalType":"bytes32"}],"outputs":[{"name":"domain","type":"string","internalType":"string"},{"name":"nullifierHash","type":"bytes32","internalType":"bytes32"},{"name":"emailHash","type":"string","internalType":"string"},{"name":"walletAddress","type":"address","internalType":"address"},{"name":"createdAt","type":"string","internalType":"string"}],"stateMutability":"view"},{"type":"function","name":"recordPublicInputsOfZkJwtProof","inputs":[{"name":"proof","type":"bytes","internalType":"bytes"},{"name":"publicInputs","type":"bytes32[]","internalType":"bytes32[]"},{"name":"separatedPublicInputs","type":"tuple","internalType":"struct DataType.PublicInput","components":[{"name":"domain","type":"string","internalType":"string"},{"name":"nullifierHash","type":"bytes32","internalType":"bytes32"},{"name":"emailHash","type":"string","internalType":"string"},{"name":"walletAddress","type":"address","internalType":"address"},{"name":"createdAt","type":"string","internalType":"string"}]}],"outputs":[{"name":"","type":"bool","internalType":"bool"}],"stateMutability":"nonpayable"},{"type":"function","name":"zkJwtProofVerifier","inputs":[],"outputs":[{"name":"","type":"address","internalType":"contract ZkJwtProofVerifier"}],"stateMutability":"view"}],"bytecode":{"object":"0x6080604052348015600e575f5ffd5b506040516114b53803806114b5833981016040819052602b91604e565b5f80546001600160a01b0319166001600160a01b03929092169190911790556079565b5f60208284031215605d575f5ffd5b81516001600160a01b03811681146072575f5ffd5b9392505050565b61142f806100865f395ff3fe608060405234801561000f575f5ffd5b506004361061009b575f3560e01c806376b848041161006357806376b848041461019457806385071923146101be578063a8c1f469146101de578063b6db92d8146101f1578063f971055214610204575f5ffd5b80630a0732fc1461009f5780630e3a0679146100cc5780632997e86b146100e15780633fbdc3531461011357806369f578d314610172575b5f5ffd5b6100b26100ad366004610d2e565b610217565b6040516100c3959493929190610d73565b60405180910390f35b6100d46103f9565b6040516100c39190610e38565b6101036100ef366004610d2e565b60026020525f908152604090205460ff1681565b60405190151581526020016100c3565b610164610121366004610f7b565b825160208185018101805160038252928201958201959095209190945282518084018501805192815290850193850193909320925291525f908152604090205481565b6040519081526020016100c3565b610103610180366004610d2e565b5f9081526002602052604090205460ff1690565b5f546101a6906001600160a01b031681565b6040516001600160a01b0390911681526020016100c3565b6101d16101cc366004610d2e565b610625565b6040516100c39190610fed565b6101036101ec366004611100565b6108b4565b6101646101ff3660046111c1565b610cc5565b6100b2610212366004610d2e565b610d14565b60048181548110610226575f80fd5b905f5260205f2090600502015f91509050805f01805461024590611224565b80601f016020809104026020016040519081016040528092919081815260200182805461027190611224565b80156102bc5780601f10610293576101008083540402835291602001916102bc565b820191905f5260205f20905b81548152906001019060200180831161029f57829003601f168201915b5050505050908060010154908060020180546102d790611224565b80601f016020809104026020016040519081016040528092919081815260200182805461030390611224565b801561034e5780601f106103255761010080835404028352916020019161034e565b820191905f5260205f20905b81548152906001019060200180831161033157829003601f168201915b505050600384015460048501805494956001600160a01b0390921694919350915061037890611224565b80601f01602080910402602001604051908101604052809291908181526020018280546103a490611224565b80156103ef5780601f106103c6576101008083540402835291602001916103ef565b820191905f5260205f20905b8154815290600101906020018083116103d257829003601f168201915b5050505050905085565b60606004805480602002602001604051908101604052809291908181526020015f905b8282101561061c578382905f5260205f2090600502016040518060a00160405290815f8201805461044c90611224565b80601f016020809104026020016040519081016040528092919081815260200182805461047890611224565b80156104c35780601f1061049a576101008083540402835291602001916104c3565b820191905f5260205f20905b8154815290600101906020018083116104a657829003601f168201915b50505050508152602001600182015481526020016002820180546104e690611224565b80601f016020809104026020016040519081016040528092919081815260200182805461051290611224565b801561055d5780601f106105345761010080835404028352916020019161055d565b820191905f5260205f20905b81548152906001019060200180831161054057829003601f168201915b505050918352505060038201546001600160a01b0316602082015260048201805460409092019161058d90611224565b80601f01602080910402602001604051908101604052809291908181526020018280546105b990611224565b80156106045780601f106105db57610100808354040283529160200191610604565b820191905f5260205f20905b8154815290600101906020018083116105e757829003601f168201915b5050505050815250508152602001906001019061041c565b50505050905090565b61065e6040518060a00160405280606081526020015f8152602001606081526020015f6001600160a01b03168152602001606081525090565b5f8281526002602052604090205460ff1615156001146106c55760405162461bcd60e51b815260206004820181905260248201527f4120676976656e206e756c6c69666965724861736820697320696e76616c696460448201526064015b60405180910390fd5b5f8281526001602052604090819020815160a081019092528054829082906106ec90611224565b80601f016020809104026020016040519081016040528092919081815260200182805461071890611224565b80156107635780601f1061073a57610100808354040283529160200191610763565b820191905f5260205f20905b81548152906001019060200180831161074657829003601f168201915b505050505081526020016001820154815260200160028201805461078690611224565b80601f01602080910402602001604051908101604052809291908181526020018280546107b290611224565b80156107fd5780601f106107d4576101008083540402835291602001916107fd565b820191905f5260205f20905b8154815290600101906020018083116107e057829003601f168201915b505050918352505060038201546001600160a01b0316602082015260048201805460409092019161082d90611224565b80601f016020809104026020016040519081016040528092919081815260200182805461085990611224565b80156108a45780601f1061087b576101008083540402835291602001916108a4565b820191905f5260205f20905b81548152906001019060200180831161088757829003601f168201915b5050505050815250509050919050565b5f8054604051639f652bc960e01b815282916001600160a01b031690639f652bc9906108ea908a908a908a908a9060040161125c565b602060405180830381865afa158015610905573d5f5f3e3d5ffd5b505050506040513d601f19601f8201168201806040525081019061092991906112be565b9050806109825760405162461bcd60e51b815260206004820152602160248201527f4120676976656e205a4b2d4a57542070726f6f66206973206e6f742076616c696044820152601960fa1b60648201526084016106bc565b82606001516001600160a01b0316336001600160a01b031614610a1b5760405162461bcd60e51b8152602060048201526044602482018190527f412063616c6c65722061646472657373206d757374206265206120676976656e908201527f207365706172617465645075626c6963496e707574732e77616c6c65744164646064820152637265737360e01b608482015260a4016106bc565b610a546040518060a00160405280606081526020015f8152602001606081526020015f6001600160a01b03168152602001606081525090565b83518152602080850151818301819052604080870151818501526060808801516001600160a01b031690850152608080880151908501525f91825260019092522081518291908190610aa69082611329565b506020820151600182015560408201516002820190610ac59082611329565b5060608201516003820180546001600160a01b0319166001600160a01b0390921691909117905560808201516004820190610b009082611329565b5050506020808201515f9081526002909152604090205460ff1615610ba65760405162461bcd60e51b815260206004820152605060248201527f4120676976656e206e756c6c69666965724861736820697320616c726561647960448201527f20757365642c207768696368206d65616e73206120676976656e2070726f6f6660648201526f081a5cc8185b1c9958591e481d5cd95960821b608482015260a4016106bc565b602080820180515f9081526002909252604091829020805460ff1916600117905551825191519091600391610bdb91906113e3565b90815260200160405180910390208260400151604051610bfb91906113e3565b90815260408051918290036020908101909220335f9081529252812091909155600480546001810182559152815182916005027f8a35acfbc15ff81a39ae7d344fd709f28e8600b4aa8c65c6b64bfe7fe36bd19b01908190610c5d9082611329565b506020820151600182015560408201516002820190610c7c9082611329565b5060608201516003820180546001600160a01b0319166001600160a01b0390921691909117905560808201516004820190610cb79082611329565b505050505095945050505050565b5f600383604051610cd691906113e3565b908152602001604051809103902082604051610cf291906113e3565b9081526040805160209281900383019020335f90815292529020549392505050565b60016020525f908152604090208054819061024590611224565b5f60208284031215610d3e575f5ffd5b5035919050565b5f81518084528060208401602086015e5f602082860101526020601f19601f83011685010191505092915050565b60a081525f610d8560a0830188610d45565b8660208401528281036040840152610d9d8187610d45565b6001600160a01b038616606085015283810360808501529050610dc08185610d45565b98975050505050505050565b5f815160a08452610de060a0850182610d45565b90506020830151602085015260408301518482036040860152610e038282610d45565b91505060018060a01b03606084015116606085015260808301518482036080860152610e2f8282610d45565b95945050505050565b5f602082016020835280845180835260408501915060408160051b8601019250602086015f5b82811015610e8f57603f19878603018452610e7a858351610dcc565b94506020938401939190910190600101610e5e565b50929695505050505050565b634e487b7160e01b5f52604160045260245ffd5b60405160a081016001600160401b0381118282101715610ed157610ed1610e9b565b60405290565b5f82601f830112610ee6575f5ffd5b81356001600160401b03811115610eff57610eff610e9b565b604051601f8201601f19908116603f011681016001600160401b0381118282101715610f2d57610f2d610e9b565b604052818152838201602001851015610f44575f5ffd5b816020850160208301375f918101602001919091529392505050565b80356001600160a01b0381168114610f76575f5ffd5b919050565b5f5f5f60608486031215610f8d575f5ffd5b83356001600160401b03811115610fa2575f5ffd5b610fae86828701610ed7565b93505060208401356001600160401b03811115610fc9575f5ffd5b610fd586828701610ed7565b925050610fe460408501610f60565b90509250925092565b602081525f610fff6020830184610dcc565b9392505050565b5f5f83601f840112611016575f5ffd5b5081356001600160401b0381111561102c575f5ffd5b6020830191508360208260051b8501011115611046575f5ffd5b9250929050565b5f60a0828403121561105d575f5ffd5b611065610eaf565b905081356001600160401b0381111561107c575f5ffd5b61108884828501610ed7565b8252506020828101359082015260408201356001600160401b038111156110ad575f5ffd5b6110b984828501610ed7565b6040830152506110cb60608301610f60565b606082015260808201356001600160401b038111156110e8575f5ffd5b6110f484828501610ed7565b60808301525092915050565b5f5f5f5f5f60608688031215611114575f5ffd5b85356001600160401b03811115611129575f5ffd5b8601601f81018813611139575f5ffd5b80356001600160401b0381111561114e575f5ffd5b88602082840101111561115f575f5ffd5b6020918201965094508601356001600160401b0381111561117e575f5ffd5b61118a88828901611006565b90945092505060408601356001600160401b038111156111a8575f5ffd5b6111b48882890161104d565b9150509295509295909350565b5f5f604083850312156111d2575f5ffd5b82356001600160401b038111156111e7575f5ffd5b6111f385828601610ed7565b92505060208301356001600160401b0381111561120e575f5ffd5b61121a85828601610ed7565b9150509250929050565b600181811c9082168061123857607f821691505b60208210810361125657634e487b7160e01b5f52602260045260245ffd5b50919050565b60408152836040820152838560608301375f60608583018101829052601f19601f8701168301838103820160208501529081018490526001600160fb1b038411156112a5575f5ffd5b8360051b80866080840137016080019695505050505050565b5f602082840312156112ce575f5ffd5b81518015158114610fff575f5ffd5b601f82111561132457805f5260205f20601f840160051c810160208510156113025750805b601f840160051c820191505b81811015611321575f815560010161130e565b50505b505050565b81516001600160401b0381111561134257611342610e9b565b611356816113508454611224565b846112dd565b6020601f821160018114611388575f83156113715750848201515b5f19600385901b1c1916600184901b178455611321565b5f84815260208120601f198516915b828110156113b75787850151825560209485019460019092019101611397565b50848210156113d457868401515f19600387901b60f8161c191681555b50505050600190811b01905550565b5f82518060208501845e5f92019182525091905056fea2646970667358221220774195f9faf2d67f254b2438fadfafe23d2416e8a0ff1363433957eb6cf6c0c064736f6c634300081c0033","linkReferences":{}},"methodIdentifiers":{"getNullifiersByDomainAndEmailHashAndWalletAddresses(string,string)":"b6db92d8","getPublicInputsOfAllProofs()":"0e3a0679","getPublicInputsOfZkJwtProof(bytes32)":"85071923","isNullifierAlreadyStoredOnChain(bytes32)":"69f578d3","nullifiers(bytes32)":"2997e86b","nullifiersByDomainAndEmailHashAndWalletAddresses(string,string,address)":"3fbdc353","publicInputsOfAllProofs(uint256)":"0a0732fc","publicInputsOfZkJwtProofs(bytes32)":"f9710552","recordPublicInputsOfZkJwtProof(bytes,bytes32[],(string,bytes32,string,address,string))":"a8c1f469","zkJwtProofVerifier()":"76b84804"},"id":2}