{
    "abi": [
        {
            "type": "constructor",
            "inputs": [
                {
                    "name": "_zkJwtProofVerifier",
                    "type": "address",
                    "internalType": "contract ZkJwtProofVerifier"
                }
            ],
            "stateMutability": "nonpayable"
        },
        {
            "type": "function",
            "name": "getNullifierByWalletAddress",
            "inputs": [],
            "outputs": [
                {
                    "name": "_nullifierHash",
                    "type": "bytes32",
                    "internalType": "bytes32"
                }
            ],
            "stateMutability": "view"
        },
        {
            "type": "function",
            "name": "getPublicInputsOfAllProofs",
            "inputs": [],
            "outputs": [
                {
                    "name": "",
                    "type": "tuple[]",
                    "internalType": "struct DataType.PublicInput[]",
                    "components": [
                        {
                            "name": "domain",
                            "type": "string",
                            "internalType": "string"
                        },
                        {
                            "name": "nullifierHash",
                            "type": "bytes32",
                            "internalType": "bytes32"
                        },
                        {
                            "name": "createdAt",
                            "type": "string",
                            "internalType": "string"
                        }
                    ]
                }
            ],
            "stateMutability": "view"
        },
        {
            "type": "function",
            "name": "getPublicInputsOfZkJwtProof",
            "inputs": [
                {
                    "name": "nullifierHash",
                    "type": "bytes32",
                    "internalType": "bytes32"
                }
            ],
            "outputs": [
                {
                    "name": "_publicInput",
                    "type": "tuple",
                    "internalType": "struct DataType.PublicInput",
                    "components": [
                        {
                            "name": "domain",
                            "type": "string",
                            "internalType": "string"
                        },
                        {
                            "name": "nullifierHash",
                            "type": "bytes32",
                            "internalType": "bytes32"
                        },
                        {
                            "name": "createdAt",
                            "type": "string",
                            "internalType": "string"
                        }
                    ]
                }
            ],
            "stateMutability": "view"
        },
        {
            "type": "function",
            "name": "nullifiers",
            "inputs": [
                {
                    "name": "nullifierHash",
                    "type": "bytes32",
                    "internalType": "bytes32"
                }
            ],
            "outputs": [
                {
                    "name": "isNullified",
                    "type": "bool",
                    "internalType": "bool"
                }
            ],
            "stateMutability": "view"
        },
        {
            "type": "function",
            "name": "nullifiersByWalletAddresses",
            "inputs": [
                {
                    "name": "walletAddress",
                    "type": "address",
                    "internalType": "address"
                }
            ],
            "outputs": [
                {
                    "name": "nullifierHash",
                    "type": "bytes32",
                    "internalType": "bytes32"
                }
            ],
            "stateMutability": "view"
        },
        {
            "type": "function",
            "name": "publicInputsOfAllProofs",
            "inputs": [
                {
                    "name": "",
                    "type": "uint256",
                    "internalType": "uint256"
                }
            ],
            "outputs": [
                {
                    "name": "domain",
                    "type": "string",
                    "internalType": "string"
                },
                {
                    "name": "nullifierHash",
                    "type": "bytes32",
                    "internalType": "bytes32"
                },
                {
                    "name": "createdAt",
                    "type": "string",
                    "internalType": "string"
                }
            ],
            "stateMutability": "view"
        },
        {
            "type": "function",
            "name": "publicInputsOfZkJwtProofs",
            "inputs": [
                {
                    "name": "nullifierHash",
                    "type": "bytes32",
                    "internalType": "bytes32"
                }
            ],
            "outputs": [
                {
                    "name": "domain",
                    "type": "string",
                    "internalType": "string"
                },
                {
                    "name": "nullifierHash",
                    "type": "bytes32",
                    "internalType": "bytes32"
                },
                {
                    "name": "createdAt",
                    "type": "string",
                    "internalType": "string"
                }
            ],
            "stateMutability": "view"
        },
        {
            "type": "function",
            "name": "recordPublicInputsOfZkJwtProof",
            "inputs": [
                {
                    "name": "proof",
                    "type": "bytes",
                    "internalType": "bytes"
                },
                {
                    "name": "publicInputs",
                    "type": "bytes32[]",
                    "internalType": "bytes32[]"
                },
                {
                    "name": "separatedPublicInputs",
                    "type": "tuple",
                    "internalType": "struct DataType.PublicInput",
                    "components": [
                        {
                            "name": "domain",
                            "type": "string",
                            "internalType": "string"
                        },
                        {
                            "name": "nullifierHash",
                            "type": "bytes32",
                            "internalType": "bytes32"
                        },
                        {
                            "name": "createdAt",
                            "type": "string",
                            "internalType": "string"
                        }
                    ]
                }
            ],
            "outputs": [
                {
                    "name": "",
                    "type": "bool",
                    "internalType": "bool"
                }
            ],
            "stateMutability": "nonpayable"
        },
        {
            "type": "function",
            "name": "zkJwtProofVerifier",
            "inputs": [],
            "outputs": [
                {
                    "name": "",
                    "type": "address",
                    "internalType": "contract ZkJwtProofVerifier"
                }
            ],
            "stateMutability": "view"
        }
    ],
    "bytecode": {
        "object": "0x6080604052348015600f57600080fd5b50604051610f70380380610f70833981016040819052602c916050565b600080546001600160a01b0319166001600160a01b0392909216919091179055607e565b600060208284031215606157600080fd5b81516001600160a01b0381168114607757600080fd5b9392505050565b610ee38061008d6000396000f3fe608060405234801561001057600080fd5b50600436106100935760003560e01c80635b76de9a116100665780635b76de9a1461011e57806376b848041461013d57806385071923146101685780639a91f38f14610188578063f9710552146101a857600080fd5b80630a0732fc146100985780630e3a0679146100c35780632997e86b146100d85780632c43aa8c1461010b575b600080fd5b6100ab6100a6366004610904565b6101bb565b6040516100ba93929190610963565b60405180910390f35b6100cb610305565b6040516100ba91906109d9565b6100fb6100e6366004610904565b60026020526000908152604090205460ff1681565b60405190151581526020016100ba565b6100fb610119366004610bcd565b610492565b336000908152600360205260409020545b6040519081526020016100ba565b600054610150906001600160a01b031681565b6040516001600160a01b0390911681526020016100ba565b61017b610176366004610904565b61071d565b6040516100ba9190610c9c565b61012f610196366004610cb6565b60036020526000908152604090205481565b6100ab6101b6366004610904565b6108e9565b600481815481106101cb57600080fd5b90600052602060002090600302016000915090508060000180546101ee90610cdf565b80601f016020809104026020016040519081016040528092919081815260200182805461021a90610cdf565b80156102675780601f1061023c57610100808354040283529160200191610267565b820191906000526020600020905b81548152906001019060200180831161024a57829003601f168201915b50505050509080600101549080600201805461028290610cdf565b80601f01602080910402602001604051908101604052809291908181526020018280546102ae90610cdf565b80156102fb5780601f106102d0576101008083540402835291602001916102fb565b820191906000526020600020905b8154815290600101906020018083116102de57829003601f168201915b5050505050905083565b60606004805480602002602001604051908101604052809291908181526020016000905b82821015610489578382906000526020600020906003020160405180606001604052908160008201805461035c90610cdf565b80601f016020809104026020016040519081016040528092919081815260200182805461038890610cdf565b80156103d55780601f106103aa576101008083540402835291602001916103d5565b820191906000526020600020905b8154815290600101906020018083116103b857829003601f168201915b50505050508152602001600182015481526020016002820180546103f890610cdf565b80601f016020809104026020016040519081016040528092919081815260200182805461042490610cdf565b80156104715780601f1061044657610100808354040283529160200191610471565b820191906000526020600020905b81548152906001019060200180831161045457829003601f168201915b50505050508152505081526020019060010190610329565b50505050905090565b60008054604051639f652bc960e01b815282916001600160a01b031690639f652bc9906104c9908a908a908a908a90600401610d19565b602060405180830381865afa1580156104e6573d6000803e3d6000fd5b505050506040513d601f19601f8201168201806040525081019061050a9190610d7d565b9050806105685760405162461bcd60e51b815260206004820152602160248201527f4120676976656e205a4b2d4a57542070726f6f66206973206e6f742076616c696044820152601960fa1b60648201526084015b60405180910390fd5b60408051606080820183528082526000602080840182815284860193845288518552888201519081905288860151909352918152600190915291909120815182919081906105b69082610dee565b5060208201516001820155604082015160028201906105d59082610dee565b50505060208082015160009081526002909152604090205460ff161561067c5760405162461bcd60e51b815260206004820152605060248201527f4120676976656e206e756c6c69666965724861736820697320616c726561647960448201527f20757365642c207768696368206d65616e73206120676976656e2070726f6f6660648201526f081a5cc8185b1c9958591e481d5cd95960821b608482015260a40161055f565b602080820180516000908152600283526040808220805460ff19166001908117909155925133835260039485905290822055600480549283018155905282518392919091027f8a35acfbc15ff81a39ae7d344fd709f28e8600b4aa8c65c6b64bfe7fe36bd19b019081906106f09082610dee565b50602082015160018201556040820151600282019061070f9082610dee565b505050505095945050505050565b6040805160608082018352808252600060208301529181019190915260008281526002602052604090205460ff16151560011461079c5760405162461bcd60e51b815260206004820181905260248201527f4120676976656e206e756c6c69666965724861736820697320696e76616c6964604482015260640161055f565b600082815260016020526040908190208151606081019092528054829082906107c490610cdf565b80601f01602080910402602001604051908101604052809291908181526020018280546107f090610cdf565b801561083d5780601f106108125761010080835404028352916020019161083d565b820191906000526020600020905b81548152906001019060200180831161082057829003601f168201915b505050505081526020016001820154815260200160028201805461086090610cdf565b80601f016020809104026020016040519081016040528092919081815260200182805461088c90610cdf565b80156108d95780601f106108ae576101008083540402835291602001916108d9565b820191906000526020600020905b8154815290600101906020018083116108bc57829003601f168201915b5050505050815250509050919050565b6001602052600090815260409020805481906101ee90610cdf565b60006020828403121561091657600080fd5b5035919050565b6000815180845260005b8181101561094357602081850181015186830182015201610927565b506000602082860101526020601f19601f83011685010191505092915050565b606081526000610976606083018661091d565b846020840152828103604084015261098e818561091d565b9695505050505050565b60008151606084526109ad606085018261091d565b905060208301516020850152604083015184820360408601526109d0828261091d565b95945050505050565b6000602082016020835280845180835260408501915060408160051b86010192506020860160005b82811015610a3257603f19878603018452610a1d858351610998565b94506020938401939190910190600101610a01565b50929695505050505050565b60008083601f840112610a5057600080fd5b50813567ffffffffffffffff811115610a6857600080fd5b6020830191508360208260051b8501011115610a8357600080fd5b9250929050565b634e487b7160e01b600052604160045260246000fd5b600082601f830112610ab157600080fd5b813567ffffffffffffffff811115610acb57610acb610a8a565b604051601f8201601f19908116603f0116810167ffffffffffffffff81118282101715610afa57610afa610a8a565b604052818152838201602001851015610b1257600080fd5b816020850160208301376000918101602001919091529392505050565b600060608284031215610b4157600080fd5b6040516060810167ffffffffffffffff81118282101715610b6457610b64610a8a565b604052905080823567ffffffffffffffff811115610b8157600080fd5b610b8d85828601610aa0565b82525060208381013590820152604083013567ffffffffffffffff811115610bb457600080fd5b610bc085828601610aa0565b6040830152505092915050565b600080600080600060608688031215610be557600080fd5b853567ffffffffffffffff811115610bfc57600080fd5b8601601f81018813610c0d57600080fd5b803567ffffffffffffffff811115610c2457600080fd5b886020828401011115610c3657600080fd5b60209182019650945086013567ffffffffffffffff811115610c5757600080fd5b610c6388828901610a3e565b909450925050604086013567ffffffffffffffff811115610c8357600080fd5b610c8f88828901610b2f565b9150509295509295909350565b602081526000610caf6020830184610998565b9392505050565b600060208284031215610cc857600080fd5b81356001600160a01b0381168114610caf57600080fd5b600181811c90821680610cf357607f821691505b602082108103610d1357634e487b7160e01b600052602260045260246000fd5b50919050565b6040815283604082015283856060830137600060608583018101829052601f19601f8701168301838103820160208501529081018490526001600160fb1b03841115610d6457600080fd5b8360051b80866080840137016080019695505050505050565b600060208284031215610d8f57600080fd5b81518015158114610caf57600080fd5b601f821115610de957806000526020600020601f840160051c81016020851015610dc65750805b601f840160051c820191505b81811015610de65760008155600101610dd2565b50505b505050565b815167ffffffffffffffff811115610e0857610e08610a8a565b610e1c81610e168454610cdf565b84610d9f565b6020601f821160018114610e505760008315610e385750848201515b600019600385901b1c1916600184901b178455610de6565b600084815260208120601f198516915b82811015610e805787850151825560209485019460019092019101610e60565b5084821015610e9e5786840151600019600387901b60f8161c191681555b50505050600190811b0190555056fea26469706673582212200ee1905e178bf2afd90fc33f44e23f1b5c177ba2c8d8c4000a91a2b3ec3c57aa64736f6c634300081c0033",
        "linkReferences": {}
    },
    "methodIdentifiers": {
        "getNullifierByWalletAddress()": "5b76de9a",
        "getPublicInputsOfAllProofs()": "0e3a0679",
        "getPublicInputsOfZkJwtProof(bytes32)": "85071923",
        "nullifiers(bytes32)": "2997e86b",
        "nullifiersByWalletAddresses(address)": "9a91f38f",
        "publicInputsOfAllProofs(uint256)": "0a0732fc",
        "publicInputsOfZkJwtProofs(bytes32)": "f9710552",
        "recordPublicInputsOfZkJwtProof(bytes,bytes32[],(string,bytes32,string))": "2c43aa8c",
        "zkJwtProofVerifier()": "76b84804"
    },
    "id": 22
}