{"abi":[{"type":"constructor","inputs":[{"name":"_zkJwtProofVerifier","type":"address","internalType":"contract ZkJwtProofVerifier"}],"stateMutability":"nonpayable"},{"type":"function","name":"getPublicInputsOfAllProofs","inputs":[],"outputs":[{"name":"","type":"tuple[]","internalType":"struct DataType.PublicInput[]","components":[{"name":"domain","type":"string","internalType":"string"},{"name":"nullifierHash","type":"bytes32","internalType":"bytes32"},{"name":"createdAt","type":"string","internalType":"string"}]}],"stateMutability":"view"},{"type":"function","name":"getPublicInputsOfZkJwtProof","inputs":[{"name":"nullifierHash","type":"bytes32","internalType":"bytes32"}],"outputs":[{"name":"_publicInput","type":"tuple","internalType":"struct DataType.PublicInput","components":[{"name":"domain","type":"string","internalType":"string"},{"name":"nullifierHash","type":"bytes32","internalType":"bytes32"},{"name":"createdAt","type":"string","internalType":"string"}]}],"stateMutability":"view"},{"type":"function","name":"nullifiers","inputs":[{"name":"nullifierHash","type":"bytes32","internalType":"bytes32"}],"outputs":[{"name":"isNullified","type":"bool","internalType":"bool"}],"stateMutability":"view"},{"type":"function","name":"publicInputsOfAllProofs","inputs":[{"name":"","type":"uint256","internalType":"uint256"}],"outputs":[{"name":"domain","type":"string","internalType":"string"},{"name":"nullifierHash","type":"bytes32","internalType":"bytes32"},{"name":"createdAt","type":"string","internalType":"string"}],"stateMutability":"view"},{"type":"function","name":"publicInputsOfZkJwtProofs","inputs":[{"name":"nullifierHash","type":"bytes32","internalType":"bytes32"}],"outputs":[{"name":"domain","type":"string","internalType":"string"},{"name":"nullifierHash","type":"bytes32","internalType":"bytes32"},{"name":"createdAt","type":"string","internalType":"string"}],"stateMutability":"view"},{"type":"function","name":"recordPublicInputsOfZkJwtProof","inputs":[{"name":"proof","type":"bytes","internalType":"bytes"},{"name":"publicInputs","type":"bytes32[]","internalType":"bytes32[]"},{"name":"separatedPublicInputs","type":"tuple","internalType":"struct DataType.PublicInput","components":[{"name":"domain","type":"string","internalType":"string"},{"name":"nullifierHash","type":"bytes32","internalType":"bytes32"},{"name":"createdAt","type":"string","internalType":"string"}]}],"outputs":[{"name":"","type":"bool","internalType":"bool"}],"stateMutability":"nonpayable"},{"type":"function","name":"zkJwtProofVerifier","inputs":[],"outputs":[{"name":"","type":"address","internalType":"contract ZkJwtProofVerifier"}],"stateMutability":"view"}],"bytecode":{"object":"0x6080604052348015600e575f5ffd5b50604051610e86380380610e86833981016040819052602b91604e565b5f80546001600160a01b0319166001600160a01b03929092169190911790556079565b5f60208284031215605d575f5ffd5b81516001600160a01b03811681146072575f5ffd5b9392505050565b610e00806100865f395ff3fe608060405234801561000f575f5ffd5b506004361061007a575f3560e01c80632c43aa8c116100585780632c43aa8c146100f057806376b8480414610103578063850719231461012d578063f97105521461014d575f5ffd5b80630a0732fc1461007e5780630e3a0679146100a95780632997e86b146100be575b5f5ffd5b61009161008c36600461088f565b610160565b6040516100a0939291906108d4565b60405180910390f35b6100b16102a1565b6040516100a09190610948565b6100e06100cc36600461088f565b60026020525f908152604090205460ff1681565b60405190151581526020016100a0565b6100e06100fe366004610b2c565b610426565b5f54610115906001600160a01b031681565b6040516001600160a01b0390911681526020016100a0565b61014061013b36600461088f565b6106a8565b6040516100a09190610bf1565b61009161015b36600461088f565b610875565b6003818154811061016f575f80fd5b905f5260205f2090600302015f91509050805f01805461018e90610c0a565b80601f01602080910402602001604051908101604052809291908181526020018280546101ba90610c0a565b80156102055780601f106101dc57610100808354040283529160200191610205565b820191905f5260205f20905b8154815290600101906020018083116101e857829003601f168201915b50505050509080600101549080600201805461022090610c0a565b80601f016020809104026020016040519081016040528092919081815260200182805461024c90610c0a565b80156102975780601f1061026e57610100808354040283529160200191610297565b820191905f5260205f20905b81548152906001019060200180831161027a57829003601f168201915b5050505050905083565b60606003805480602002602001604051908101604052809291908181526020015f905b8282101561041d578382905f5260205f2090600302016040518060600160405290815f820180546102f490610c0a565b80601f016020809104026020016040519081016040528092919081815260200182805461032090610c0a565b801561036b5780601f106103425761010080835404028352916020019161036b565b820191905f5260205f20905b81548152906001019060200180831161034e57829003601f168201915b505050505081526020016001820154815260200160028201805461038e90610c0a565b80601f01602080910402602001604051908101604052809291908181526020018280546103ba90610c0a565b80156104055780601f106103dc57610100808354040283529160200191610405565b820191905f5260205f20905b8154815290600101906020018083116103e857829003601f168201915b505050505081525050815260200190600101906102c4565b50505050905090565b5f8054604051639f652bc960e01b815282916001600160a01b031690639f652bc99061045c908a908a908a908a90600401610c42565b602060405180830381865afa158015610477573d5f5f3e3d5ffd5b505050506040513d601f19601f8201168201806040525081019061049b9190610ca4565b9050806104f95760405162461bcd60e51b815260206004820152602160248201527f4120676976656e205a4b2d4a57542070726f6f66206973206e6f742076616c696044820152601960fa1b60648201526084015b60405180910390fd5b61051c6040518060600160405280606081526020015f8152602001606081525090565b83518152602080850151818301819052604080870151818501525f918252600190925220815182919081906105519082610d0f565b5060208201516001820155604082015160028201906105709082610d0f565b5050506020808201515f9081526002909152604090205460ff16156106165760405162461bcd60e51b815260206004820152605060248201527f4120676976656e206e756c6c69666965724861736820697320616c726561647960448201527f20757365642c207768696368206d65616e73206120676976656e2070726f6f6660648201526f081a5cc8185b1c9958591e481d5cd95960821b608482015260a4016104f0565b6020808201515f908152600290915260408120805460ff191660019081179091556003805491820181559182905282518392919091027fc2575a0e9e593c00f959f8c92f12db2869c3395a3b0502d05e2516446f71f85b0190819061067b9082610d0f565b50602082015160018201556040820151600282019061069a9082610d0f565b505050505095945050505050565b6106cb6040518060600160405280606081526020015f8152602001606081525090565b5f8281526002602052604090205460ff16151560011461072d5760405162461bcd60e51b815260206004820181905260248201527f4120676976656e206e756c6c69666965724861736820697320696e76616c696460448201526064016104f0565b5f828152600160205260409081902081516060810190925280548290829061075490610c0a565b80601f016020809104026020016040519081016040528092919081815260200182805461078090610c0a565b80156107cb5780601f106107a2576101008083540402835291602001916107cb565b820191905f5260205f20905b8154815290600101906020018083116107ae57829003601f168201915b50505050508152602001600182015481526020016002820180546107ee90610c0a565b80601f016020809104026020016040519081016040528092919081815260200182805461081a90610c0a565b80156108655780601f1061083c57610100808354040283529160200191610865565b820191905f5260205f20905b81548152906001019060200180831161084857829003601f168201915b5050505050815250509050919050565b60016020525f908152604090208054819061018e90610c0a565b5f6020828403121561089f575f5ffd5b5035919050565b5f81518084528060208401602086015e5f602082860101526020601f19601f83011685010191505092915050565b606081525f6108e660608301866108a6565b84602084015282810360408401526108fe81856108a6565b9695505050505050565b5f81516060845261091c60608501826108a6565b9050602083015160208501526040830151848203604086015261093f82826108a6565b95945050505050565b5f602082016020835280845180835260408501915060408160051b8601019250602086015f5b8281101561099f57603f1987860301845261098a858351610908565b9450602093840193919091019060010161096e565b50929695505050505050565b5f5f83601f8401126109bb575f5ffd5b50813567ffffffffffffffff8111156109d2575f5ffd5b6020830191508360208260051b85010111156109ec575f5ffd5b9250929050565b634e487b7160e01b5f52604160045260245ffd5b5f82601f830112610a16575f5ffd5b813567ffffffffffffffff811115610a3057610a306109f3565b604051601f8201601f19908116603f0116810167ffffffffffffffff81118282101715610a5f57610a5f6109f3565b604052818152838201602001851015610a76575f5ffd5b816020850160208301375f918101602001919091529392505050565b5f60608284031215610aa2575f5ffd5b6040516060810167ffffffffffffffff81118282101715610ac557610ac56109f3565b604052905080823567ffffffffffffffff811115610ae1575f5ffd5b610aed85828601610a07565b82525060208381013590820152604083013567ffffffffffffffff811115610b13575f5ffd5b610b1f85828601610a07565b6040830152505092915050565b5f5f5f5f5f60608688031215610b40575f5ffd5b853567ffffffffffffffff811115610b56575f5ffd5b8601601f81018813610b66575f5ffd5b803567ffffffffffffffff811115610b7c575f5ffd5b886020828401011115610b8d575f5ffd5b60209182019650945086013567ffffffffffffffff811115610bad575f5ffd5b610bb9888289016109ab565b909450925050604086013567ffffffffffffffff811115610bd8575f5ffd5b610be488828901610a92565b9150509295509295909350565b602081525f610c036020830184610908565b9392505050565b600181811c90821680610c1e57607f821691505b602082108103610c3c57634e487b7160e01b5f52602260045260245ffd5b50919050565b60408152836040820152838560608301375f60608583018101829052601f19601f8701168301838103820160208501529081018490526001600160fb1b03841115610c8b575f5ffd5b8360051b80866080840137016080019695505050505050565b5f60208284031215610cb4575f5ffd5b81518015158114610c03575f5ffd5b601f821115610d0a57805f5260205f20601f840160051c81016020851015610ce85750805b601f840160051c820191505b81811015610d07575f8155600101610cf4565b50505b505050565b815167ffffffffffffffff811115610d2957610d296109f3565b610d3d81610d378454610c0a565b84610cc3565b6020601f821160018114610d6f575f8315610d585750848201515b5f19600385901b1c1916600184901b178455610d07565b5f84815260208120601f198516915b82811015610d9e5787850151825560209485019460019092019101610d7e565b5084821015610dbb57868401515f19600387901b60f8161c191681555b50505050600190811b0190555056fea264697066735822122038a1928a0b95423b097e2799377abfc04320a7b4d404b2c59d5d5d320b0386e064736f6c634300081c0033","linkReferences":{}},"methodIdentifiers":{"getPublicInputsOfAllProofs()":"0e3a0679","getPublicInputsOfZkJwtProof(bytes32)":"85071923","nullifiers(bytes32)":"2997e86b","publicInputsOfAllProofs(uint256)":"0a0732fc","publicInputsOfZkJwtProofs(bytes32)":"f9710552","recordPublicInputsOfZkJwtProof(bytes,bytes32[],(string,bytes32,string))":"2c43aa8c","zkJwtProofVerifier()":"76b84804"},"id":2}